:020000040800F2
:10000000C807002079490008B1470008B347000835
:10001000B5470008B7470008B947000800000000CE
:10002000000000000000000000000000BB470008C6
:10003000BD47000800000000BF470008C147000896
:10004000994900089D490008A1490008A5490008F0
:10005000A9490008AD490008B1490008B5490008A0
:10006000B9490008BD490008C1490008C549000850
:10007000C9490008CD490008D1490008D549000800
:10008000C9470008D3470008D9490008DD490008DE
:10009000DD470008E1490008E5490008E949000892
:1000A000ED490008F1490008F5490008F949000840
:1000B000FD490008014A0008E7470008054A000812
:1000C000094A00080D4A0008114A0008154A0008AC
:1000D000194A00081D4A0008F1470008214A000893
:1000E000254A0008294A00082D4A0008314A00081C
:1000F000354A0008394A00083D4A0008414A0008CC
:10010000454A0008494A00084D4A0008514A00087B
:10011000554A0008594A0008FB4700085D4A000894
:1001200005480008614A0008654A0008694A000855
:100130006D4A00080000000000000000714A00083D
:10014000754A0008794A00087D4A0008814A00087B
:10015000854A0008894A00088D4A0008914A00082B
:10016000954A0008994A00089D4A0008A14A0008DB
:10017000A54A0008A94A0008AD4A0008000000008E
:1001800000000000B14A000800000000000000006C
:10019000B54A00080000000000000000B94A00084D
:1001A000000000000000000000000000BD4A000840
:1001B000C14A0008C54A0008C94A0008CD4A0008DB
:1001C000D14A000810B50400002C01D1012033E011
:1001D000A0690028FFD194F83D00002805D1002037
:1001E00084F83C00200000F018FF242084F83D0033
:1001F0002068C06830F400502168C860200000F01A
:100200002BFC2068006930F4904021680861206868
:10021000406930F02A00216848612068C06850F4C5
:1002200000502168C86000202064202084F83D0030
:10023000202084F83E00002010BD73B50400150096
:1002400094F83D00202846D10198002803D02800CA
:1002500080B2002801D101203EE094F83C00012842
:1002600001D1022038E0012084F83C00019820628E
:10027000A584E58400202064212084F83D001748EF
:10028000616BC8631648616B08641648616BC8648B
:100290000020616B086501AE2B009BB22068021D37
:1002A0003168606B00F0C5FF7FF040002168086096
:1002B000002084F83C002068143050E8000F50F013
:1002C00080000100206810F1140242E800100028AC
:1002D000F1D1002000E0022076BD0000FD050008FD
:1002E000510600082707000870B505000C0016002D
:1002F00095F83E00202819D1002C03D0300080B2A0
:10030000002801D1012012E095F83C00012801D11C
:1003100002200CE0012085F83C0000202863320018
:1003200092B22100280000F02AFA00E0022070BDFD
:100330002DE9FC470600306807683068D0F80C806B
:100340003068D0F814900020002517F00F04002C1E
:1003500008D1B80606D55FEA886003D5300000F002
:1003600002FB49E1002C00F080805FEAC97002D4F2
:1003700018F4907F79D017F00100C0B2002806D0A1
:100380005FEAC85003D5306C50F001003064780744
:1003900008D519F00100C0B2002803D0306C50F02D
:1003A00002003064B80708D519F00100C0B2002877
:1003B00003D0306C50F00400306438070BD55FEA8E
:1003C000886004D419F00100C0B2002803D0306C5A
:1003D00050F008003064306C002845D0B80605D5D0
:1003E0005FEA886002D5300000F0BDFA30684069ED
:1003F000800910F001000500306C000701D4002DC9
:100400002DD0300000F02BFA30684069400622D52C
:100410003068143050E8000F30F0400001003068C0
:1004200010F1140242E800100028F1D1B06B00284E
:100430000DD00FF29540B16B0865B06B00F08DFFE9
:10044000002811D0B06BB16B096D88470CE030000B
:1004500001F020F908E0300001F01CF904E0300060
:1004600001F018F900203064C6E0306B012840F03C
:10047000B180F80640F1AE805FEAC86040F1AA8022
:10048000002000903068006800903068406800905C
:1004900000983068406940065BD5B06B0068D0F8C2
:1004A00004A0504680B2002852D05046B18D80B290
:1004B00088424DD2A6F82EA0B06BC069B0F5807FFF
:1004C0003FD030680C3050E8000F30F480700100ED
:1004D000306810F10C0242E800100028F1D13068B9
:1004E000143050E8000F400840000100306810F15F
:1004F000140242E800100028F1D13068143050E8AE
:10050000000F30F040000100306810F1140242E8A2
:1005100000100028F1D1202086F83E000020306332
:1005200030680C3050E8000F30F0100001003068E7
:1005300010F10C0242E800100028F1D1B06B00F07D
:10054000BEFEB18DF08D091A89B2300001F0A3F81A
:1005500052E0B08DB6F82EA0B0EB0A0AF08D00285C
:1005600037D0504680B2002833D030680C3050E885
:10057000000F30F490700100306810F10C0242E876
:1005800000100028F1D13068143050E8000F400806
:1005900040000100306810F1140242E80010002809
:1005A000F1D1202086F83E000020306330680C3006
:1005B00050E8000F30F010000100306810F10C021C
:1005C00042E800100028F1D1514689B2300001F014
:1005D00062F811E0380606D55FEA086003D53000FE
:1005E00000F07EF908E0780606D55FEA486003D59A
:1005F000300000F0A8F9FFE7BDE8F38738B5040044
:10060000A56B20680068C0051ED40020E884286817
:10061000143050E8000F30F080000100286810F11D
:10062000140242E800100028F1D128680C3050E88C
:10063000000F50F040000100286810F10C0242E861
:1006400000100028F1D102E0280001F025F831BDAA
:1006500038B50400A56B280001F01FF831BD38B58E
:100660000400A56B20680068C0053FD40020E88521
:1006700028680C3050E8000F30F4807001002868C2
:1006800010F10C0242E800100028F1D12868143063
:1006900050E8000F400840000100286810F11402E3
:1006A00042E800100028F1D12868143050E8000F0B
:1006B00030F040000100286810F1140242E80010F8
:1006C0000028F1D1202085F83E00286B01280DD1AB
:1006D00028680C3050E8000F30F010000100286846
:1006E00010F10C0242E800100028F1D1286B01281B
:1006F00004D1A98D280000F0CEFF02E0280000F010
:10070000CDFF31BD38B50400A56B286B012806D19B
:10071000A98D490889B2280000F0BDFF02E0280039
:1007200000F0BDFF31BDF8B506000020B76B396899
:100730004C69E40914F0010497F83D10212906D111
:10074000002C04D00020F884380000F076F83868D7
:100750004569AD0915F0010597F83E00222806D13C
:10076000002D04D00020F885380000F078F8386CAF
:1007700050F010003864380000F08CFFF1BD73B504
:10078000040015000198A062A585002020642220A5
:1007900084F83E00DFF8BC05A16BC863DFF8B8053C
:1007A000A16B0864DFF8B405A16BC8640020A16BDD
:1007B000086501AE2B009BB232682068011DA06B5A
:1007C00000F037FD0020009020680068009020684D
:1007D000406800900098002084F83C0020690028C0
:1007E0000DD020680C3050E8000F50F480700100EC
:1007F000206810F10C0242E800100028F1D12068B6
:10080000143050E8000F50F001000100206810F192
:10081000140242E800100028F1D12068143050E89A
:10082000000F50F040000100206810F1140242E86F
:1008300000100028F1D1002076BD01680C3151E88C
:10084000001F31F0C0010A00016811F10C0343E8F8
:1008500000210029F1D1202180F83D107047016866
:100860000C3151E8001F31F490710A00016811F158
:100870000C0343E800210029F1D10168143151E84B
:10088000001F490849000A00016811F1140343E8F8
:1008900000210029F1D1016B01290DD101680C3132
:1008A00051E8001F31F010010A00016811F10C033A
:1008B00043E800210029F1D1202180F83E100021D9
:1008C000016370470000000038B50400A56B0020EC
:1008D000E8850020E884280000F0DCFE31BD00003F
:1008E000010091F83D0021282BD18868B0F5805F88
:1008F0000DD1086900280AD1086A02001088C005D5
:10090000C00D0B685860086A801C086205E0086A20
:10091000431C0B6200780B685860C88C401EC8846A
:1009200080B200280BD10868C06830F080000B68E6
:10093000D8600868C06850F040000B68D86000209C
:1009400000E00220704710B504002068C06830F055
:1009500040002168C860202084F83D00200000F09D
:100960009BFE002010BD7CB5040094F83E002228B8
:1009700070D1A068B0F5805F0DD1206900280AD140
:100980000025A66A20684068C005C00D3080A06AB6
:10099000801CA06217E0A56A0026A068B0F5805F01
:1009A00005D0A068002806D12069002803D120685E
:1009B0004068287004E02068406810F07F002870CC
:1009C000A06A401CA062E08D401EE08580B2002835
:1009D0003ED12068C06830F020002168C8602068DF
:1009E000C06830F480702168C860206840694008A1
:1009F000400021684861202084F83E00206B0128D7
:100A000021D10020206320680C3050E8000F30F026
:100A100010000100206810F10C0242E800100028CC
:100A2000F1D120680068C00608D500200090206839
:100A3000006800902068406800900098A18D200018
:100A400000F029FE02E0200000F028FE002002E075
:100A5000002000E0022076BD2DE9F84F84B00500AB
:100A60002868016931F44051E86801432868016150
:100A7000D5F808B0286950EA0B0B686950EA0B0BEF
:100A8000E86950EA0B0B2868C168B54801405BEA89
:100A900001012868C1602868416931F44071A86982
:100AA0000143286841612868AE49884203D028681C
:100AB000AD49884203D100F0A1FE040002E000F03D
:100AC00092FE0400E869B0F5004F40F0A1807FF08D
:100AD000630A022600275FF019085FF00009220070
:100AE0000023A8FB020108FB031109FB0211CDE959
:100AF000000168680021A6FB002306FB013307FB09
:100B00000033DDE9000100F093FE6421B0FBF1F059
:100B1000039022000023A8FB020108FB031109FB3C
:100B20000211CDE9000168680021A6FB002306FB45
:100B3000013307FB0033DDE9000100F079FE02908C
:100B400022000023A8FB020108FB031109FB02118C
:100B5000CDE9000168680021A6FB002306FB0133F4
:100B600007FB0033DDE9000100F062FE6421B0FB09
:100B7000F1F102980AFB0101C80032306421B0FB98
:100B8000F1F0400010F4F870039910EB011002909E
:100B900022000023A8FB020108FB031109FB02113C
:100BA000CDE9000168680021A6FB002306FB0133A4
:100BB00007FB0033DDE9000100F03AFE009022005F
:100BC0000023A8FB020108FB031109FB0211804668
:100BD000894668680021A6FB002306FB013307FB5A
:100BE00000334046494600F023FE6421B0FBF1F19A
:100BF00000980AFB010A5FEACA0032306421B0FBA8
:100C0000F1F111F0070102980918286881609EE04F
:100C1000042600277FF0630A5FF019085FF00009DF
:100C200022000023A8FB020108FB031109FB0211AB
:100C3000CDE9000168680021A6FB002306FB013313
:100C400007FB0033DDE9000100F0F2FD6421B0FB99
:100C5000F1F0039022000023A8FB020108FB03111E
:100C600009FB0211CDE9000168680021A6FB002301
:100C700006FB013307FB0033DDE9000100F0D8FD7E
:100C8000029022000023A8FB020108FB031109FBCC
:100C90000211CDE9000168680021A6FB002306FBD4
:100CA000013307FB0033DDE9000100F0C1FD6421E1
:100CB000B0FBF1F102980AFB010108013230642116
:100CC000B0FBF1F010F0F000039910EB011002906E
:100CD00022000023A8FB020108FB031109FB0211FB
:100CE000CDE9000168680021A6FB002306FB013363
:100CF00007FB0033DDE9000100F09AFD00902200BF
:100D00000023A8FB020108FB031109FB0211804626
:100D1000894668680021A6FB002306FB013307FB18
:100D200000334046494600F083FD6421B0FBF1F1F9
:100D300000980AFB010A5FEA0A1032306421B0FB16
:100D4000F1F111F00F01029809182868816005B0CF
:100D5000BDE8F08F5F0600080507000827070008B8
:100D6000F369FFFF001001400014014081B0002032
:100D70000090DFF89803016851F480410160006839
:100D800010F480400090009800200090DFF880036D
:100D9000016851F080510160006810F080500090AF
:100DA000009801B0704738B586B0040014220021C5
:100DB00001A800F055FE2068DFF85813884248D19A
:100DC00000200090DFF84403016851F48071016055
:100DD000006810F480700090009800200090DFF808
:100DE0003803016851F001010160006810F0010052
:100DF00000900098102001900320029000200390A2
:100E000001A9DFF8180300F035FEDFF81453DFF80E
:100E100014032860002068600020A8600020E860BB
:100E20004FF4806028614FF4006068614FF4005017
:100E3000A8614FF48070E861002028620020686299
:100E4000280000F085F9002801D001F08BFBA56394
:100E5000AC6307B030BD10B586B004001422002189
:100E600001A800F0FDFD2068DFF8BC1288422FD1F8
:100E700000200090DFF89802016851F000710160D5
:100E8000006810F000700090009800200090A248C8
:100E9000016851F001010160006810F0010000904C
:100EA00000984FF4C050019002200290002003905F
:100EB000032004900920059001A9984800F0DAFD6C
:100EC00000220021142001F0C9FB142001F0DBFBFB
:100ED00006B010BD10B586B004001422002101A890
:100EE00000F0BEFD2068B0F1804F25D100200090B9
:100EF0008748016851F001010160006810F00100AD
:100F000000900098002000908348016851F0010192
:100F10000160006810F0010000900098032001902B
:100F200002200290002003900020049001200590F0
:100F300001A97A4800F09EFD06B010BD1CB5040062
:100F400020687A49884213D10020009070480168D7
:100F500051F004010160006810F004000090009856
:100F6000002200211E2001F079FB1E2001F08BFBE6
:100F700013BD1CB5040020686D49884214D10020BF
:100F800000906348016851F010010160006810F0A2
:100F900010000090009800220021362001F05EFB36
:100FA000362001F070FB0FE02068624988420BD1C7
:100FB000002000905648016851F02001016000684F
:100FC00010F020000090009813BD10B586B004000A
:100FD0001422002101A800F043FD206853498842F3
:100FE00019D1002000904C48016851F002010160C5
:100FF000006810F00200009000988020019002200C
:10100000029000200390002004900220059001A986
:10101000494800F02FFD06B010BDF8B586B00400B9
:101020001422002101A800F01BFD206843498842DA
:101030006AD1002000903648016851F40031016007
:10104000006810F4003000900098002000903248B2
:10105000016851F001010160006810F0010000908A
:1010600000980C20019002200290002003900320A1
:1010700004900720059001A9284800F0FBFC304DA2
:10108000304828605FF000666E604020A860002055
:10109000E8604FF480672F61002068610020A8613C
:1010A0000020E8610020286200206862280000F02B
:1010B0004FF8002801D001F055FA6563AC63224D6A
:1010C000224828606E600020A8600020E8602F6140
:1010D000002068610020A8614FF48070E861002062
:1010E000286200206862280000F032F8002801D051
:1010F00001F038FAA563AC6300220021262001F03C
:10110000ADFA262001F0BFFA07B0F0BD4438024026
:1011100040380240002001403038024000000240C8
:101120005C000020106402400064004000080040A1
:101130000010004000140040000402400044004041
:10114000BC000020A06002401C010020886002401A
:1011500070B50400002601F0B3FA0500002C01D19F
:10116000012065E0606A0028022084F83500002034
:1011700084F8340020680068400840002168086056
:1011800020680068C0070BD501F09AFA401B0628BA
:10119000F6D320206065032084F83500032047E063
:1011A00020680168DFF84404014060680143A068DA
:1011B0000143E06801432069014360690143A0697C
:1011C0000143E0690143206A0143606A042803D1B6
:1011D000E06A0143206B0143206801602068466992
:1011E000F608F600606A0643606A042810D1A06A17
:1011F0000643E06A00280BD0200000F0FDF900282B
:1012000006D040206065012084F8350001200FE001
:1012100020684661200000F0CFF901003F22E06D18
:1012200082408A6000206065012084F8350000203B
:1012300070BD2DE9F84304000D0016001F005FF09B
:101240000008D4F8589094F83400012801D1022005
:1012500033E0012084F8340094F83500012825D1CA
:10126000022084F83500002060653B003200290030
:10127000200000F08AF93F21E06D8140C9F8081094
:101280002068006850F0160021680860206C002873
:1012900005D02068006850F00800216808602068C8
:1012A000006850F001002168086004E0002084F824
:1012B0003400022080464046C0B2BDE8F28370B5DB
:1012C0000400A56D01F0FCF9060094F83500022831
:1012D00006D080206065002084F8340001203BE0C7
:1012E0002068006830F016002168086020684069B6
:1012F00030F0800021684861206C002802D1A06C89
:10130000002805D02068006830F0080021680860D7
:101310002068006840084000216808602068006874
:10132000C0070ED501F0CCF9801B0628F6D320208B
:101330006065032084F83500002084F83400032021
:101340000AE03F21E06D8140A960012084F835006A
:10135000002084F83400002070BD010091F83500B1
:10136000022803D080204865012009E0052081F88B
:10137000350008680068400840000A6810600020D6
:101380007047F8B5040000200090DFF864020068A0
:101390004FF41651B0FBF1F5A66D37680821E06DEA
:1013A00011FA00F0074210D02068006840070CD501
:1013B0002068006830F0040022681060E06D814011
:1013C000B160606D50F001006065E06D3900C140B2
:1013D000C8070BD520684069000607D50121E06DDC
:1013E0008140B160606D50F0020060650421E06DE5
:1013F00011FA00F007420AD020680068800706D57D
:10140000E06D8140B160606D50F0040060651021B6
:10141000E06D11FA00F007422CD020680068000748
:1014200028D5E06D8140B16020680068400311D587
:1014300020680068000306D4206C00281AD0200021
:10144000216C884716E0A06C002813D02000A16C06
:1014500088470FE020680068C00505D42068006850
:1014600030F0080021680860206C002802D02000BD
:10147000216C88472021E06D11FA00F007425FD00F
:1014800020680068C0065BD5E06D8140B16094F8CB
:101490003500052828D12068006830F01600216842
:1014A00008602068406930F0800021684861206C45
:1014B000002802D1A06C002805D02068006830F018
:1014C0000800216808603F21E06D8140B160012083
:1014D00084F83500002084F83400206D002802D004
:1014E0002000216D88474FE020680068400311D537
:1014F00020680068000306D4606C002820D020001B
:10150000616C88471CE0E06B002819D02000E16B7B
:10151000884715E020680068C0050BD42068006883
:1015200030F0100021680860012084F835000020A8
:1015300084F83400E06B002802D02000E16B88477B
:10154000606D002820D0606DC00717D5052084F895
:101550003500206800684008400021680860009855
:10156000401C0090854203D320680068C007F6D471
:10157000012084F83500002084F83400E06C002855
:1015800002D02000E16C8847F1BD30B404682468C3
:1015900034F4802405682C60046863608468402CFF
:1015A00004D10468A2600468E16003E00468A160FB
:1015B0000468E26030BC7047017801F0FF01103927
:1015C0001822B1FBF2F10B4A525CC265042905D323
:1015D0000268920A9202121D826503E00268920A72
:1015E00092028265806D7047000000003F8010F01D
:1015F000500000208849000810B402000020936ABF
:101600009169002916D1002B05D0022B03D008D3F5
:10161000032B0DD00DE0D16AC90101D501210800CD
:1016200035E0D16AB1F1C07F01D1012108002EE07F
:101630002DE02CE09169B1F5005F18D1002B05D0A9
:10164000022B03D005D3032B09D00FE001210800A2
:101650001DE0D16AC90101D50121080017E0D16A56
:10166000B1F1C07F01D10121080010E00FE01900A5
:101670000029022902D9C91E03D008E0012108006F
:1016800005E0D16AC90101D501210800FFE7C0B218
:1016900010BC70477047704770477047704770477D
:1016A0002DE9F04104000D00002C01D1012095E04E
:1016B000584F386810F00F00A84207D23D703868C4
:1016C00010F00F00A84201D0012087E020788007A9
:1016D00016D52078400704D54F48016851F4E051F1
:1016E00001602078000704D54B48016851F460413F
:1016F000016049490A6832F0F002A06802430A60BA
:101700002078C00738D56068012805D143480068B3
:10171000800313D4012061E06068022802D0606871
:10172000032805D13D480068800107D4012055E019
:101730003A480068800701D401204FE0DFF8D880E4
:10174000D8F800108908890060680143C8F80010C3
:1017500000F0B6FF0600D8F8000010F00C00616839
:10176000B0EB810F08D000F0ABFF801B41F2893154
:101770008842F0D3032031E0386810F00F00854232
:1017800007D23D70386810F00F00A84201D0012048
:1017900024E02078400706D51F490A6832F4E05259
:1017A000E06802430A602078000707D51A480168FC
:1017B00031F46041226951EAC201016000F086FF04
:1017C0001749154A1268C2F30312895CC8401549CB
:1017D00008601548006801F019FA0020BDE8F081A2
:1017E00010480068704780B5FFF7FAFF0F490A4AB2
:1017F0001268C2F38222895CC84002BD80B5FFF73F
:10180000EFFF0A49044A1268C2F34232895CC840B9
:1018100002BD0000003C024008380240003802408F
:1018200068490008500000204C0000209049000842
:10183000BBBBE1B1B2F5803F80F07E80022A1ED9A9
:101840008C46B1FBF2F102FB11C31B0443EA1043C7
:10185000B3FBF2FC02FB1C3380B240EA0343B3FB50
:10186000F2F002FB103240EA0C4000237047022ADB
:1018700005D98446B0FBF2F002FB10C270474AB1B2
:1018800005D100F0010249085FEA300070470022EC
:101890000023704701F0E0B90B0002000021002096
:1018A0007047904271EB030CF6D3B3F5803F2FD213
:1018B000F0B5B3FA83F7B1FA81F4A7F10F0E3D1B2F
:1018C0005340CEF1200602FA0EF2F3415340B5F137
:1018D0000F0746D80F3C2C444140C4F12006A040DD
:1018E000F1414140B1FBF3F603FB1611A2FB0645A3
:1018F000001BA94102D2761E8018594180EA0102DC
:1019000021FA0EF362FA0EF200215A403046F0BD81
:1019100030B4B1FBF3FC03FB1C11A2FB0C45001B14
:10192000A94103D2ACF1010C8018594130BC0246E8
:101930000B46604600217047B2F1807F65D3F0B559
:10194000B2FA82F7B1FA81F4C7F10F063D1B22FA11
:1019500006F307F1110EF24120355A40B5F10F0799
:10196000B8D94140C4F12006A040F1414140B1FB4B
:10197000F3FC03FB1C11A2FB0C45001BA94103D285
:10198000BCF1010C801859410F2F12D30F3FC9032E
:1019900041EA5041B1FBF3F603FB1611A2FB0645E9
:1019A000D4EBC030A94102D2761E8018594146EAD4
:1019B000CC3C07B34140C7F12006B840F14141405B
:1019C000B1FBF3F603FB1611A2FB0645001BA94170
:1019D00002D2761E8018594180EA010221FA0EF3E4
:1019E000C7F1200462FA0EF20CFA07F05A402CFA02
:1019F00004F13043F0BD80EA010221FA0EF3002128
:101A000062FA0EF260465A40F0BD8C46B1FBF2F12C
:101A100002FB11C31B0243EA1063B3FBF2FC02FB9F
:101A20001C331B024CEA002043EA1063B3FBF2FCB8
:101A300002FB1C331B024CEA002043EA1063B3FB99
:101A4000F2FC02FB1C331B024CEA002043EA106349
:101A5000B3FBF2FC02FB1C324CEA0020002370476F
:101A600010B5044610460A460146204601F012F918
:101A7000204610BDF8B50023002400250026102EB6
:101A800080F00281012717FA06F213000A681A4053
:101A900014009C4240F0F6800A7912F00302012AF9
:101AA00004D00A7912F00302022A1FD1D0F808C02C
:101AB0005FF0030E3200D2B252001EFA02FE3CEA80
:101AC0000E0CD1F80CE03200D2B252001EFA02FE27
:101AD0005EEA0C0CC0F808C04268B740BA434F68D1
:101AE000C7F30017B7403A43150045600A7912F072
:101AF0000302032A14D0C7685FF0030C3200D2B28D
:101B000052001CFA02FC37EA0C07D1F808C0320078
:101B1000D2B252001CFA02FC5CEA07073D00C56025
:101B20000A7912F00302022A1ED13200D20800EB19
:101B30008202176A5FF00F0C16F00702D2B2920011
:101B40001CFA02FC37EA0C07D1F810C016F00702A5
:101B5000D2B292001CFA02FC5CEA07073D00320098
:101B6000D20800EB8202156207685FF0030C3200B6
:101B7000D2B252001CFA02FC37EA0C0791F804C0FA
:101B80001CF0030C3200D2B252001CFA02FC5CEAD8
:101B900007073D0005604A6812F4403F72D00022FA
:101BA0000092404A176857F480471760126812F491
:101BB00080420092009ADFF8F0C0320092085CF890
:101BC00022705FF00F0E16F00302D2B292001EFADE
:101BD00002FE37EA0E07354A904201D100251EE089
:101BE000334A904201D1012519E0324A904201D195
:101BF000022514E0304A904201D103250FE02F4A1C
:101C0000904201D104250AE02D4A904201D10525D8
:101C100005E02C4A904201D1062500E00725EDB2EF
:101C200016F00302D2B2920095402F433200920880
:101C30004CF82270244D2A68A243D1F804C05FEA10
:101C4000CC2C00D522432A60204F3D68A543D1F813
:101C500004C05FEA8C2C00D525433D601C4F3A68D8
:101C6000A243D1F804C05FEA8C3C00D522433A601D
:101C7000184F3D68A543D1F804C05FEACC3C00D5BD
:101C800025433D60761CFAE6F1BD1300DBB2002B64
:101C900003D00B009BB2836103E00B009BB21B04DB
:101CA0008361704744380240083801400000024018
:101CB0000004024000080240000C024000100240F4
:101CC0000014024000180240083C01400C3C014056
:101CD000043C0140003C01402DE9F04F85B0002458
:101CE000002C43D0DFF8B0572878AA2837D1042633
:101CF000681C0490DFF8A47732000499380000F0E3
:101D0000FDFF0427681D0390DFF894873A000399CC
:101D1000404600F0F3FF5FF0040815F1090002905F
:101D2000DFF8809742460299484600F0E7FF5FF0EF
:101D3000040915F10D000190DFF86CA74A460199DE
:101D4000504600F0DBFF5FF0040A15F1110000902F
:101D5000DFF858B752460099584600F0CFFF287870
:101D6000FE2803D10120DFF84817087005B0BDE850
:101D7000F08F00002DE9FE4F8246DFF83887C2451C
:101D800040F009815FF00209DFF82C47DFF82C579B
:101D9000288800EE100AB8EE400A4FF47A704946DF
:101DA000C9B290FBF1F000EE900AF8EEE00A80EE86
:101DB000200A10EE100A00F0F5FFDFF80427DFF824
:101DC000043701F013F801F0E7F800EE100A01F013
:101DD000FDF9F7EE000A30EEC00ADFED960AB3EE29
:101DE0000E1A00EE201A84ED001ADFF8DC66DFF828
:101DF000DC06008800EE100AB8EE400AF7EE000A92
:101E000080EE800A86ED000ADFF8C476DFF8C406AB
:101E1000008801F0DDF9DFF8A826DFF8BC3600F015
:101E2000E5FF01F0B9F83860B7EE000AD7ED000A17
:101E300080EE200ADFF8A40680ED000ADFF8A02675
:101E4000B0EE000AD6ED000A80EE200AD7ED000AB7
:101E500030EE200AD7ED000A80EE800A82ED000AFB
:101E6000DFF8800611680160DFF87C16B0EE000A2A
:101E7000D6ED000A80EE200AD7ED000A30EE600AA7
:101E8000F0EE000A96ED001AC0EE810A97ED001AF6
:101E900070EE810A80EE200A81ED000ADFF84C66C0
:101EA000DFF84C361B8800EE103AB8EE400AD2ED4F
:101EB000000A20EE200ADFF83C26128800EE902A65
:101EC000F8EE600A90ED001A00EE810AD1ED000AEA
:101ED000DFF8240690ED001A00EE810A86ED000A74
:101EE000DFF818060068DFF818160880DFF8140617
:101EF00001F0AEF92888401C28802888B0F57A7F48
:101F000006D1DFF804060188491C018000202880E2
:101F1000DFF89C05017801290AD10021DFF8E825C6
:101F200011800021DFF8E425126851620021017060
:101F300002270295DFF8D85515F1020B3A000299F5
:101F4000584600F0DBFE5FF0040B01962E1D5A464A
:101F50000199300000F0D2FE0426009415F1080427
:101F600032000099200000F0C9FE0E222900DFF89F
:101F7000A405FEF762F9FFF7AFFEDFF89C05D8F87D
:101F80000010496A0180DFF894150A8803889A4294
:101F900001D200880880BDE8F78F80B501F090FC81
:101FA00000F04AF800F023FA00F044F900F0FDF8E0
:101FB00000F0ECF900F0AAF900F0CFF900F07FF999
:101FC00000F093F800F0CDF83C21DFF8400501F077
:101FD0009FFE01220221DFF84805FFF756FE04218B
:101FE000DFF8400501F097FDDFF8C80401F000FDBF
:101FF000DFF8340501F0B5FC1522DFF83015DFF805
:102000001405FEF771F90122DFF8E414DFF8F40497
:1020100001F0B6F9DFF8F804AA210170AA21417095
:10202000BB210173BB214173DFF8040502F080F985
:10203000FEE700000000484218B593B034210022AA
:1020400006AC200000F026FE1421002201AC200086
:1020500000F020FE00200090DFF8D804016851F065
:1020600080510160006810F08050009000980020BE
:102070000090DFF8C404016851F440410160006839
:1020800010F4404000900098022006900120099032
:1020900010200A9002200C9000200D9008200E9035
:1020A000A0200F9002201090022011900220129088
:1020B00006A800F08BFB002801D000F053FA0F2097
:1020C000019002200290002003904FF4A050049051
:1020D0004FF480500590052101A8FFF7E1FA002890
:1020E00001D000F03FFA14B010BD1FB5102100223E
:1020F0006C46200000F0CEFDDFF80844DFF83C0419
:1021000020605FF4803060600020A06001202061CA
:1021100000202076002084F820000020E062DFF814
:102120002004A0620020E0600120E061012084F82A
:10213000300001206061200001F058F8002801D033
:1021400000F010FA0420009001200190002002907D
:102150006946200001F0D8F9002801D000F002FA09
:102160001FBD80B5DFF8DC03DFF8DC13016004215C
:102170004160002181600021C1605FF4E0210161C4
:102180000021416100210176002141760021817604
:102190000021C176002101770021417702F0D4F8B7
:1021A000002801D000F0DEF901BD18B58BB0242164
:1021B000002202AC200000F06DFD082100226C46D8
:1021C000200000F067FDD14C5FF0804020600020CF
:1021D00060600020A06040F20E70E060002020618E
:1021E0000020A061032002900020039001200490B1
:1021F0000020059000200690002007900120089004
:102200000020099000200A9002A9200001F018FD8A
:10221000002801D000F0A6F90020009000200190D5
:102220006946200002F058FA002801D000F09AF91F
:102230000CB010BD18B589B0082100226C462000F2
:1022400000F028FD1C21002202AC200000F022FD3D
:10225000B44CBE482060002060600020A06040F2C6
:102260001F30E060002020610020A061200001F00C
:102270001BFC002801D000F075F900200090002020
:1022800001906946200002F027FA002801D000F0F2
:1022900069F9602002900020039000200490002043
:1022A0000690042202A9200001F073FE002801D04C
:1022B00000F058F92000FEF788FE0AB010BD1CB5EA
:1022C000082100226C46200000F0E4FC794CA04874
:1022D0002060012060600020A06049F63F40E0607F
:1022E0000020A061200001F005FB002801D000F0D3
:1022F00039F900200090002001906946200002F08A
:10230000EBF9002801D000F02DF913BD1CB5082110
:1023100000226C46200000F0BDFC834C8D482060FC
:102320004F2060600020A0604FF6FF70E06000204A
:10233000A061200001F0DEFA002801D000F012F9BF
:1023400000200090002001906946200002F0C4F9AE
:10235000002801D000F006F913BD80B56D487E4914
:1023600001607E494160002181600021C16000213F
:1023700001610C214161002181610021C161FDF7F2
:1023800021FF002801D000F0EDF801BD80B500204C
:1023900000907348016851F400110160016811F464
:1023A00000110091009900210091016851F4800111
:1023B0000160006810F48000009000980022002165
:1023C000102000F04BF9102000F05DF900220021F0
:1023D000112000F043F9112000F055F900220021EE
:1023E000382000F03BF9382000F04DF901BD10B560
:1023F00086B01421002201AC200000F04BFC00202C
:1024000000905748016851F004010160016811F023
:1024100004010091009900210091016851F08001B0
:102420000160016811F08001009100990021009184
:10243000016851F001010160016811F00101009192
:10244000009900210091016851F0020101600068CB
:1024500010F0020000900098314C00220221200070
:10246000FFF713FC4FF4005001905FF488100290C6
:102470000020039001A92000FFF7FCFA0220019040
:1024800001200290002003900220049001A9200066
:10249000FFF7F0FA06B010BD68030020000000202E
:1024A00004000020080000200C0000201000002084
:1024B000C603002054020020B0030020BA0300200D
:1024C000182D4454FB2109409003002054000020A3
:1024D0009803002056000020FB211940940300209F
:1024E0009C030020A0030020A4030020A8030020D8
:1024F000BE030020C0030020AC03002024140040D1
:10250000B80300207C010020BC030020C40100208F
:1025100080030020E4020020C2030020C403002046
:10252000000802400C0200209C0200205003002002
:10253000140000204038024000700040002001409C
:102540000100000F28030020006400400008004044
:1025500000100040001400400044004040420F00C2
:102560003038024072B6FEE710B410F00703DFF80F
:10257000304122684FF6FF010A4052EA0322DFF899
:1025800024110A43226010BC7047DFF81401006870
:10259000C0F302207047010049B2002909D401228A
:1025A00010F01F018A40404903005BB25B0941F80B
:1025B0002320704710B4020052B2002A05D40A0149
:1025C0003A4B040064B21A5508E00A01384B040083
:1025D00064B214F00F04234403F8042C10BC7047B9
:1025E00070B4030013F00704D4F10700052801D3E9
:1025F000042001E0D4F10700251D072D01D200259C
:1026000000E0E51E012616FA00F0401E0140A94038
:1026100016FA05F56D1E2A401143080070BC70477C
:1026200010B50400601EB0F1807F01D301200EE0E0
:10263000601E204908600F215FF0FF30FFF7BAFFEE
:1026400000201D49086007201C490860002010BDBB
:1026500010B504002000FFF787FF10BD2DE9F04101
:1026600004000D0016000027FFF78FFF80463200A0
:1026700029004046FFF7B4FF0100200040B2FFF7F9
:1026800099FFBDE8F08110B50400200040B2FFF7CB
:1026900082FF10BD10B504002000FFF7C1FF10BD80
:1026A0000CED00E00000FA0500E100E000E400E0CD
:1026B00018ED00E014E000E018E000E010E000E0B9
:1026C00001480068704700BFB40300202DE9F043C3
:1026D00000240025002600275FF000083A48006823
:1026E00010F00C00002806D0042807D0082808D0D5
:1026F0000C2836D063E0DFF8EC0462E0DFF8E00499
:102700005FE0DFF8D894D9F8000010F03F00040033
:10271000D9F8000040020DD5D9F80000C0F38810A8
:10272000DFF8BC14A1FB000122000023FFF780F8B2
:1027300005000CE0D9F80000C0F38810DFF8A414FD
:10274000A1FB000122000023FFF772F80500D9F871
:102750000000C0F30140401C40000600B5FBF6F04D
:102760002FE0DFF87894D9F8000010F03F00040063
:10277000D9F8000040020DD5D9F80000C0F3881048
:10278000DFF85C14A1FB000122000023FFF750F8E2
:1027900005000CE0D9F80000C0F38810DFF84414FD
:1027A000A1FB000122000023FFF742F80500D9F841
:1027B0000000C0F302700700B5FBF7F001E0DFF89E
:1027C0002404BDE8F0830000083802402DE9F843F6
:1027D0000400002C01D10120FEE12078C00769D55A
:1027E000DFF81004016811F00C01042913D001680E
:1027F00011F00C01082904D1DFF8E013096849023F
:1028000009D4006810F00C000C280ED1DFF8CC03BE
:102810000068400209D5DFF8D4030068800349D579
:102820006068002846D10120D6E16068B0F5803F9D
:1028300006D1DFF8B803016851F48031016018E077
:102840006068B0F5A02F0AD1DFF8A003016851F449
:1028500080210160016851F48031016009E0DFF8F6
:102860008C03016831F480310160016831F480210A
:102870000160606800280ED0FFF722FF0500DFF836
:102880006C030068800315D4FFF71AFF401B65280E
:10289000F5D30320A0E1FFF713FF0500DFF84C0399
:1028A0000068800306D5FFF70BFF401B6528F5D3B2
:1028B000032091E1207880075BD5DFF838030168B9
:1028C00011F00C0F12D0016811F00C01082904D18D
:1028D000DFF808130968490208D5006810F00C00F9
:1028E0000C2815D1BD480068400211D4DFF8FC0265
:1028F0000168890704D5E168012901D001206BE155
:10290000016831F0F801226951EAC201016030E04A
:10291000E06800281AD00120DFF8DC120860FFF719
:10292000CFFE0500DFF8C4020168890706D4FFF76F
:10293000C7FE401B0328F5D303204DE1016831F0A9
:10294000F801226951EAC201016012E00020DFF8BB
:10295000A8120860FFF7B4FE0500DFF890020068D7
:10296000800706D5FFF7ACFE401B0328F5D30320F4
:1029700032E12078000727D56069002812D00120B5
:10298000DFF878120860FFF79BFE0500DFF86002B1
:102990000068800718D4FFF793FE401B0328F5D387
:1029A000032019E10020DFF854120860FFF788FEC9
:1029B00005008F480068800706D5FFF781FE401BA1
:1029C0000328F6D3032007E1207840077CD50027B1
:1029D000DFF82C82D8F80000C0000FD4002000904F
:1029E000D8F8000050F08050C8F80000D8F8000077
:1029F00010F080500090009801200700DFF804924A
:102A0000D9F80000C00513D4D9F8000050F4807044
:102A1000C9F80000FFF754FE0500D9F80000C00512
:102A200006D4FFF74DFE401B0328F6D30320D3E066
:102A3000A068012805D16C48016851F001010160CE
:102A400015E0A068052809D16748016851F0040124
:102A50000160016851F00101016008E0624801680D
:102A6000490849000160016831F004010160A06873
:102A700000280FD0FFF724FE05005B4800688007A0
:102A800018D4FFF71DFE401B41F289318842F4D370
:102A90000320A1E0FFF714FE0500534800688007FB
:102AA00008D5FFF70DFE401B41F289318842F4D36F
:102AB000032091E03800C0B2012805D1D8F8000009
:102AC00030F08050C8F80000A069002800F0838032
:102AD0004848006810F00C0008284AD0A069022875
:102AE00036D1494F00203860FFF7EAFD8046DFF815
:102AF000FC90D9F80000800107D5FFF7E1FDB0EBAD
:102B000008000328F3D3032066E0E169206A01434B
:102B1000606A51EA8011A06A4008401E51EA0041F3
:102B2000E06A51EA0061206B51EA00712B480160B4
:102B300001203860FFF7C4FD0500D9F800008001CE
:102B400049D4FFF7BDFD401B0328F6D3032043E023
:102B500000202D490860FFF7B3FD050023480068F9
:102B6000800138D5FFF7ACFD401B0328F6D30320C6
:102B700032E0A069012801D101202DE0174800684A
:102B80000600A069012824D016F48000E16988427B
:102B90001FD116F03F00216A88421AD147F6C07053
:102BA0003040616AB0EB811F13D116F44030A16A46
:102BB0004908491EB0EB014F0BD116F07060E16A75
:102BC000B0EB016F05D116F0E040216BB0EB017F57
:102BD00001D0012000E00020BDE8F283043802406B
:102BE00000127A000024F4007038024000380240DD
:102BF000743802400838024000004742800E4742C5
:102C000040380240007000406000474210B50400A8
:102C10004FF47A700D490978B0FBF1F00C4909685E
:102C2000B1FBF0F0FFF736FD002801D001200CE0E9
:102C3000102C09D2002221005FF0FF30FFF70EFDBB
:102C400004480460002000E0012010BD580000206E
:102C5000500000204C000020704730B501688468A7
:102C60004218416802EB5103C90703D54C4401E007
:102C7000491C08D19A4218BF12F9011B01D10C302E
:102C800030BD12F8015B002904F8015BF0D4491E45
:102C9000F7D5EFE762F30F2262F31F42401810F0FE
:102CA000030308D0C91A1FD3DB0748BF00F8012D62
:102CB00028BF20F8022D130030B4144615461039F1
:102CC00028BF20E93C00FAD8490728BF20E90C00BA
:102CD00048BF40F8042D890028BF20F8022D48BFC6
:102CE00000F8012D30BC7047C91818BF00F8012D3D
:102CF000CB0728BF00F8012D7047000062B38B0797
:102D000008D0521E11F8013B00F8013B00F024806E
:102D10008B07F6D1830740F0208000BF103A07D31D
:102D200030B4B1E83810103AA0E83810F9D230BC0D
:102D3000530724BFB1E80810A0E8081044BF51F8B9
:102D4000043B40F8043BD20724BF31F8022B20F8A3
:102D5000022B44BF0B7803707047121F17D35B0020
:102D600009D151F8043B20F8023B1B0C121F20F83C
:102D7000023BF6D20BE051F8043B00F8013B1B0A82
:102D800020F8023B1B0C121F00F8013BF3D238BFA6
:102D9000121D521E24BF11F8013B00F8013BF8D868
:102DA00070470000C0F3C75181B1FF2906D0C110A0
:102DB000400721F0E04101F16051704741020CBF32
:102DC00040F4E0016FF000410020704700F0004146
:102DD00000020AD0B0FA80FC00FA0CF001F1605158
:102DE000A1EB0C5101EBD0214005704730B540F20A
:102DF000FF7C1CEA11541DBF1CEA13556445654550
:102E00003FE0641981EA030C6FF35F530CF0004C50
:102E100043F48013C90241F0004141EA505EC5020B
:102E20001100A5FB020200284FF00000EEFB01207C
:102E30004FF00001E3FB052118BF42F001024018EA
:102E400000214941E3FB0E01A4F580640D0302D289
:102E500092184041494154F1010470DD450872F176
:102E6000004250F1000051EB0451A1F5801102D451
:102E700041EA0C0130BD40F2FF7E4CEA0E510020C9
:102E800030BD0CEA1355644518BF654581EA030C53
:102E90000CF0004C41D050EA410E1CBF52EA430EE8
:102EA00002E06146002030BD24422C441BD15FEA81
:102EB000050EF6D0090302BF01460020AEF1140E44
:102EC000B1FA81F5AEEB050401FA05FE0C35C5F14A
:102ED000200100FA05F5C8404EEA000E6FF35F537B
:102EE00043F480139CE733F00043B3FA83F504BF47
:102EF000B2FA82FE75440B3D641BB5F1200E2FBF64
:102F000002FA0EF3AB40C5F1200E22FA0EFE38BFD6
:102F100043EA0E03AA40641C7CE750EA410E14BF4A
:102F200052EA430E6FF000014FF4001515EB430F0A
:102F30008EBF194615EB410F9DE7B4D830BDD4F1D3
:102F40000104B4F120050FDAC4F12005520828BFAE
:102F500042F0010210FA05FE01FA05F57244E2BFE3
:102F6000E0402843E1400FE0352C9ADCC5F1200415
:102F700052EA400220FA05F218BF42F0010231FA8B
:102F800005F0A1400A43002172F1004250F1000017
:102F900051EB0C0130BD000001F000428B1AA3F18F
:102FA0006051B1F5801F0ADBB1F17F6F1FD242EA99
:102FB000C102C10071F1004142EB507070470B1526
:102FC000C3F10903212B10D2890241EA90518002FA
:102FD0000128494141F0004121FA03F0C3F12003E7
:102FE000994071F1004150417047100070476FF0F7
:102FF000000013EB103F5CBF000E42EAC050704768
:10300000DFED620A60EE200A10EE903A23F00041F4
:1030100001EE101ADFED5E1AB4EE611AF1EE10FA4D
:1030200025D54FF07C5103F000430B4301EE103ADD
:1030300070EE810AFDEEE00A10EE901A00296AD0C7
:10304000FAEEC90A9FED531A00EE810ADFED521A1B
:1030500000EEA10A9FED512A00EE820ADFED502A10
:1030600000EEA20A9FED4F1A00EE810A53E010EE27
:10307000101A4A001216521C09D149000816401CA9
:1030800002D1090240F081809FED470A7047490054
:1030900004D1002879D0B7EE000A70474FF07C5178
:1030A00003F000430B4301EE103A70EE810A10EE7C
:1030B000902A51000FD0090EC1F196011829A8BF1E
:1030C00002F0004205DA0029C4BF22FA01F303FA34
:1030D00001F200EE902A10EE901A490017D09FEDF1
:1030E000331A20EE811ADFED2B1A01EE210A9FED33
:1030F0002A2A01EE020ADFED292A01EE220A9FEDBB
:10310000283A01EE030ADFED271A01EE210AFDEE4F
:10311000E00A10EE901A10EE102A22F0004200EEA3
:10312000902A9FED231A01F00301F4EE410A0818DA
:10313000F1EE10FA00F0010103D511B3B7EE000A69
:103140001FE060EE000A71B19FED1A0A9FED1A1A96
:1031500000EE801ADFED191A41EE201AB7EE000AD0
:1031600001EEA00A0DE09FED162ADFED161A40EEE3
:10317000821ADFED152A20EE201A41EEA02A01EE78
:10318000220A800748BFB1EE400A704783F9223F08
:103190000000004F0000C9C600A0FDC00020A2BA78
:1031A000000034B30030C2AEFFFFFF7F0000803864
:1031B000000080399349B2BA36A02A3DDFFFFFBE36
:1031C0006E8C4CB94283083CA1AA2ABE012017E7A5
:1031D00050B1B0FA80F18840C91CC1F5846109057D
:1031E00001EBD021400570470146704738B5040017
:1031F0000025002C01D1012029E0A06ADFF8F0159C
:103200008842206C002807D12000FDF7CCFD00206B
:103210006064002084F83C00206CC00610D4206C50
:1032200030F4885050F002002064200000F033FA9F
:10323000002060640120216C60F30101216401E041
:1032400001200500002084F83C002800C0B232BDF7
:1032500081B002000020009092F83C00012801D1CA
:1032600002208BE0012082F83C0010688068C007D3
:1032700016D41068806850F0010013689860DFF879
:1032800074050068DFF87035B0FBF3F303204343A7
:1032900000930098002803D00098401E0090F8E7A3
:1032A00010688068C00760D5136CDFF850050340D4
:1032B00053F48073136410684068400504D50120FE
:1032C000136C60F30D331364106CC00404D5506CA0
:1032D00030F00600506401E000205064002082F8C5
:1032E0003C00DFF81C0501007FF022001368186025
:1032F000486810F01F0F27D11068DFF80835984292
:1033000016D01068DFF80035984205D1DFF8FC04CC
:10331000006810F01F0F0BD01068DFF8F4349842EB
:103320002BD1DFF8E804006810F01F00102824D229
:103330001068806810F0405F1FD11068806850F0FE
:1033400080401368986018E01068DFF8B83498423D
:1033500013D11068806810F0405F0ED1106880684B
:1033600050F080401368986007E0106C50F0100037
:103370001064506C50F001005064002001B07047A0
:10338000F8B505000E0017000020009095F83C00ED
:10339000012801D10220B6E0012085F83C00286810
:1033A0008068C00716D42868806850F0010029683A
:1033B0008860DFF840040068DFF83C14B0FBF1F1EE
:1033C0000320414300910098002803D00098401E3C
:1033D0000090F8E728688068C00505D528688068EF
:1033E00030F480702968886028688068C00740F1E0
:1033F0008180296CDFF80404014051F48071296454
:1034000028684068400504D50120296C60F30D311F
:103410002964286CC00404D5686C30F00600686428
:1034200001E000206864002085F83C00DFF8D0034C
:1034300004000FF2E530A96BC8630FF25940A96B85
:1034400008640FF26140A96BC8647FF0220029680C
:1034500008602868406850F08060296848602868E3
:10346000806850F48070296888603B0032002868CA
:1034700010F14C01A86BFDF7DCFE606810F01F0F27
:1034800027D12868DFF87C13884216D02868DFF837
:103490007813884205D1DFF87403006810F01F0F1D
:1034A0000BD02868DFF8681388422BD1DFF85C0363
:1034B000006810F01F00102824D22868806810F0DF
:1034C000405F1FD12868806850F08040296888607C
:1034D00018E02868DFF82C13884213D12868806828
:1034E00010F0405F0ED12868806850F08040296855
:1034F000886007E0286C50F010002864686C50F079
:10350000010068640020F2BD38B402000020009081
:1035100092F83C00012801D10220BAE0012082F893
:103520003C0008680A2818D31068C3680724086894
:103530000A38032510FB05F08440A3431068C360DC
:103540001068C3688C6808680A38032510FB05F00A
:10355000844023431068C36013E0106803690724A4
:103560000D6803204543AC40A34310680361106815
:1035700003698C680D6803204543AC402343106801
:1035800003614868072818D21068436B1F244868F5
:10359000401E052510FB05F08440A34310684363DB
:1035A0001068436B0C884868401E052510FB05F029
:1035B000844023431068436333E048680D2818D2E1
:1035C0001068036B1F244868C01F052510FB05F019
:1035D0008440A343106803631068036B0C88486839
:1035E000C01F052510FB05F08440234310680363CA
:1035F00017E01068C36A1F2448680D38052510FBC2
:1036000005F08440A3431068C3621068C36A0C8845
:1036100048680D38052510FB05F0844023431068E9
:10362000C362774B7748146884420AD10C68122C25
:1036300007D15C6834F400045C605C6854F4800476
:103640005C601468844220D172480C68844202D0C5
:103650000C68112C19D15C6834F480045C605C68DF
:1036600054F400045C600C6884420ED16148006828
:10367000614CB0FBF4F40A20444300940098002805
:1036800003D00098401E0090F8E7002082F83C002C
:10369000002032BC70475A4A516831F440315160C1
:1036A000536841680B4353600168496831F4807185
:1036B0000368596001684968036951EA0321036896
:1036C00059600168496831F04071036859600168C8
:1036D0004B6881680B4301684B600168896831F46D
:1036E00000610368996001688B68C1680B430168D9
:1036F0008B60816A3E4B994218D00168896831F02D
:1037000070610368996001688B68816A0B43016886
:103710008B600168896831F04051036899600168E5
:103720008B68C16A0B4301688B600BE00168896894
:1037300031F07061036899600168896831F0405127
:10374000036899600168896831F002010368996033
:1037500001688968037E51EA43010368996090F823
:103760002010002914D00168496851F400610368F1
:1037700059600168496831F4604103685960016823
:103780004968436A5B1E51EA43310368596005E0AA
:103790000168496831F40061036859600168C96AC9
:1037A00031F470010368D9620168C96AC3695B1E9C
:1037B00051EA03510368D9620168896831F40071E4
:1037C000036899600168896890F8303051EA4321B4
:1037D000036899600168896831F4806103689960C1
:1037E00001688968436951EA8321036899607047D9
:1037F0000100000F5000002040420F00FEF9FFFFC3
:103800000023014000200140002101400423014029
:10381000002201401200001038B50400A56B286C8E
:1038200010F0500F29D1286C50F4007028642868DB
:10383000806810F0405F1CD1287E002819D12868CC
:10384000C06A10F4700F03D028688068400510D457
:103850002868406830F0200029684860286C30F4FF
:1038600080702864286CC00403D4286C50F00100D8
:103870002864280000F086FF0AE0286CC00603D503
:10388000280000F080FF03E02000A96BC96C884786
:1038900031BD000038B50400A56B280000F074FFAE
:1038A00031BD000038B50400A56B40202864686C69
:1038B00050F004006864280000F065FF31BD00008E
:1038C00080B50B48016851F400710160016851F442
:1038D00080610160016851F4807101600320FEF78E
:1038E000B7FE0020FFF792F9FDF740FA002002BD75
:1038F000003C024010B50400002C01D101202FE053
:1039000094F83D00002805D1002084F83C002000F8
:10391000FDF72FFB022084F83D00211D206800F0F8
:10392000B6FB012084F84600012084F83E00012007
:1039300084F83F00012084F84000012084F8410011
:10394000012084F84200012084F84300012084F81B
:103950004400012084F84500012084F83D00002047
:1039600010BD010091F83D00012801D001203EE08A
:10397000022081F83D000868DFF81031984221D01C
:103980000868B0F1804F1DD00868DFF80431984214
:1039900018D00868DFF8FC30984213D00868DFF8C8
:1039A000F83098420ED00868DFF8F030984209D01D
:1039B0000868DFF8EC30984204D00868DFF8E4309B
:1039C00098420DD10868806810F007000200062AAE
:1039D0000CD00868006850F001000B68186005E022
:1039E0000868006850F001000B68186000207047FC
:1039F000010091F83D00012801D0012044E002209F
:103A000081F83D000868C06850F001000B68D8607C
:103A10000868DFF87830984221D00868B0F1804F0C
:103A20001DD00868DFF86830984218D00868DFF8C1
:103A30006430984213D00868DFF85C3098420ED0AA
:103A40000868DFF85830984209D00868DFF850302D
:103A5000984204D00868DFF84C3098420DD10868CD
:103A6000806810F007000200062A0CD00868006881
:103A700050F001000B68186005E00868006850F01D
:103A800001000B6818600020704700000000014032
:103A90000004004000080040000C00400004014009
:103AA000004001400018004010B50400002C01D176
:103AB00001202FE094F83D00002805D1002084F873
:103AC0003C002000FDF73AFA022084F83D00211D59
:103AD000206800F0DCFA012084F84600012084F818
:103AE0003E00012084F83F00012084F840000120BE
:103AF00084F84100012084F84200012084F843004A
:103B0000012084F84400012084F84500012084F855
:103B10003D00002010BD70B505000C00002C02D146
:103B200095F83E000BE0042C02D195F83F0006E02A
:103B3000082C02D195F8400001E095F841000128D9
:103B400001D001206DE0002C04D1022085F83E0058
:103B5000C0B211E0042C04D1022085F83F00C0B2AD
:103B60000AE0082C04D1022085F84000C0B203E02E
:103B7000022085F84100C0B201222100286800F02F
:103B8000C5FBDFF8A0102868884204D02868DFF859
:103B90009820904201D1012000E00020C0B200280E
:103BA00005D02868406C50F400402A6850642868AA
:103BB000884221D02868B0F1804F1DD02868DFF8F6
:103BC0006C10884218D02868DFF86410884213D03F
:103BD0002868DFF8601088420ED02868DFF84810A7
:103BE000884209D02868DFF85010884204D028683D
:103BF000DFF8481088420DD12868806810F007006F
:103C00000600062E0CD02868006850F001002968D4
:103C1000086005E02868006850F001002968086025
:103C2000002070BD0000014000040140000400407D
:103C300000080040000C0040004001400018004017
:103C400038B504000D00002C01D101205EE094F88D
:103C50003D00002805D1002084F83C002000FDF73D
:103C600039F9022084F83D0020688168DFF89C0162
:103C7000014020688160211D206800F008FA20685A
:103C80008168206882692068036A28680143DFF838
:103C900080010240A8680243A86952EA0022DFF8C6
:103CA00074010240DFF870010240E8680243E869ED
:103CB00052EA0022286952EA0012286A52EA0032C7
:103CC00033F0220333F0880368680343686953EADA
:103CD00000132068816020688261206803620120EF
:103CE00084F84600012084F83E00C0B2012084F828
:103CF0003F00C0B2012084F84200C0B2012084F825
:103D00004300C0B2012084F83D00002032BD000015
:103D10002DE9F84305000C0095F83E6095F83F70DA
:103D200095F8428095F84390002C12D13000C0B233
:103D3000012803D14046C0B2012801D0012062E031
:103D4000022085F83E00C0B2022085F84200C0B2D1
:103D500036E0042C12D13800C0B2012803D1484605
:103D6000C0B2012801D001204DE0022085F83F00BB
:103D7000C0B2022085F84300C0B221E03000C0B2DA
:103D800001280BD13800C0B2012807D14046C0B28B
:103D9000012803D14846C0B2012801D0012032E0F9
:103DA000022085F83E00C0B2022085F83F00C0B274
:103DB000022085F84200C0B2022085F84300C0B25C
:103DC0002000002802D0042806D00BE001220021A8
:103DD000286800F09BFA0FE001220421286800F017
:103DE00095FA09E001220021286800F08FFA0122EB
:103DF0000421286800F08AFA2868006850F0010061
:103E0000296808600020BDE8F2830000F8BFFFFFCA
:103E1000FCFCFFFFF3F3FFFF0F0FFFFF10B50400E3
:103E20002068006980071AD52068C068800716D509
:103E30007FF00200216808610120207720688069F6
:103E400010F0030F03D0200000F09FFC05E02000DD
:103E500000F09CFC200000F09AFC002020772068F5
:103E6000006940071AD52068C068400716D57FF062
:103E7000040021680861022020772068806910F41E
:103E8000407F03D0200000F080FC05E0200000F01F
:103E90007DFC200000F07BFC00202077206800697A
:103EA00000071AD52068C068000716D57FF0080003
:103EB00021680861042020772068C06910F0030F92
:103EC00003D0200000F061FC05E0200000F05EFC63
:103ED000200000F05CFC0020207720680069C0060C
:103EE0001AD52068C068C00616D57FF0100021687A
:103EF0000861082020772068C06910F4407F03D053
:103F0000200000F042FC05E0200000F03FFC200013
:103F100000F03DFC0020207720680069C0070AD52A
:103F20002068C068C00706D57FF0010021680861DD
:103F30002000FDF71FFF2068006900060AD52068F1
:103F4000C068000606D57FF0800021680861200067
:103F500000F01EFC2068006940060AD52068C06891
:103F6000400606D57FF0400021680861200000F07F
:103F700010FC2068006980060AD52068C0688006A9
:103F800006D57FF0200021680861200000F002FCC7
:103F900010BDF8B504000D001700002694F83C0091
:103FA000012801D1022071E0012084F83C00380092
:103FB000002806D004281BD0082831D00C2846D071
:103FC0005DE02900206800F0C5F82068806950F0A5
:103FD0000800216888612068806930F00400216849
:103FE000886120688169286901432068816148E00F
:103FF0002900206800F0E0F82068806950F4006033
:10400000216888612068806930F480602168886157
:1040100020688069296950EA01202168886130E0C0
:104020002900206800F0FFF82068C06950F00800FF
:104030002168C8612068C06930F004002168C86147
:104040002068C169286901432068C16119E029001D
:10405000206800F01FF92068C06950F400602168F2
:10406000C8612068C06930F480602168C861206838
:10407000C069296950EA01202168C86101E0012076
:104080000600002084F83C003000C0B2F2BD10B43D
:104090000468DFF84C32984212D0B0F1804F0FD054
:1040A000DFF8402290420BD0DFF83C22904207D04C
:1040B000DFF83822904203D0DFF83422904203D157
:1040C00034F070044A68144398422AD0B0F1804F0B
:1040D00027D0DFF81022904223D0DFF80C22904244
:1040E0001FD0DFF8082290421BD0DFF80422904254
:1040F00017D0DFF80022904213D0DFF8FC21904265
:104100000FD0DFF8F82190420BD0DFF8F421904275
:1041100007D0DFF8F021904203D0DFF8EC21904285
:1041200003D134F44074CA68144334F080044A69FB
:10413000144304608A68C2620A688262984202D0AC
:104140006B4A904201D10A6902630122426110BCAC
:104150007047000070B4026A520852000262046A9A
:104160004568836933F070039B089B000A6813431A
:1041700034F002048A681443594EB04202D05C4ABB
:10418000904205D134F00804CA68144334F00404A2
:10419000B04202D0564A904207D135F4807535F4CA
:1041A00000754A6915438A691543456083614A6809
:1041B0004263046270BC704770B4026A32F010024D
:1041C0000262036A4468826932F4E04232F4407267
:1041D0000D6852EA052233F020038D6853EA051377
:1041E0003F4DA84202D0424EB04206D133F0800388
:1041F000CE6853EA061333F04003A84202D03C4D88
:10420000A84209D134F4806434F400644D6954EA5E
:1042100085048D6954EA8504446082614D68856334
:10422000036270BC704770B4026A32F4807202623A
:10423000046A4568C36933F070039B089B000A68F1
:10424000134334F400748A6854EA0224244A9042E6
:1042500002D0274EB04206D134F40064CE6854EA4E
:10426000062434F48064904202D0214A904209D15D
:1042700035F4805535F400554A6955EA02158A69C6
:1042800055EA02154560C3614A68C263046270BCA6
:104290007047000030B4026A32F480520262036A4E
:1042A0004468C26932F4E04232F440720D6852EA66
:1042B000052233F400538D6853EA0533084DA842B4
:1042C00002D00B4DA84204D134F480444D6954EA25
:1042D00085144460C2614D680564036230BC704758
:1042E000000001400004004000080040000C0040B5
:1042F00000040140004001400044014000480140EA
:1043000000180040001C00400020004030B4012490
:1043100011F01F0314FA03F3046A9C430462046A55
:1043200011F01F0512FA05F52C43046230BC7047EA
:1043300000214162002181620021C16200210163EC
:10434000002141637047000070B50400002C01D1CA
:104350000120AEE094F82000002802D12000FCF7F4
:104360007AFD2068006850F0010021680860FEF7BF
:10437000A7F9050020684068C0070DD4FEF7A0F932
:10438000401B0B28F6D3606A50F4003060620520B1
:1043900084F8200001208CE02068006830F00200E2
:1043A00021680860FEF78CF90600206840688007E5
:1043B0000DD5FEF785F9801B0B28F6D3606A50F403
:1043C00000306062052084F82000012071E0207E2A
:1043D000012806D12068006850F08000216808603C
:1043E00005E02068006830F0800021680860607E89
:1043F000012806D12068006850F04000216808605C
:1044000005E02068006830F0400021680860A07E68
:10441000012806D12068006850F02000216808605B
:1044200005E02068006830F0200021680860E07E28
:10443000012806D12068006830F01000216808606B
:1044400005E02068006850F0100021680860207FB7
:10445000012806D12068006850F008002168086033
:1044600005E02068006830F0080021680860607F7F
:10447000012806D12068006850F004002168086017
:1044800005E02068006830F0040021680860A16839
:10449000E068014320690143606901436068401E90
:1044A00001432068C16100206062012084F820007F
:1044B000002070BD2DE9F84F0500002428684669EA
:1044C000286847682868D0F808802868D0F80C90D9
:1044D0002868D0F810A02868D0F818B0F00755D593
:1044E0005FEAC87018D50120296888605FEA887083
:1044F00003D5280000F04FF90EE05FEA487002D5BE
:1045000054F4006408E05FEA087002D554F4805463
:1045100002E0280000F040F95FEAC85019D54FF4D6
:104520008070296888605FEA885003D5280000F011
:1045300034F90EE05FEA485002D554F4005408E024
:104540005FEA085002D554F4804402E0280000F0ED
:1045500025F95FEAC83019D55FF480302968886092
:104560005FEA883003D5280000F019F90EE05FEA11
:10457000483002D554F4004408E05FEA083002D520
:1045800054F4803402E0280000F00AF9300707D51F
:104590005FEAC96004D554F4007410202968C8602B
:1045A000700708D55FEA097005D508202968C8603A
:1045B000280000F0F6F8B00707D52868C06810F0AA
:1045C000030F02D0280000F0EDF8700607D55FEA6F
:1045D000CA6004D554F48064102029680861B006CC
:1045E00008D55FEA0A7005D5082029680861280007
:1045F00000F0D9F8F00607D52868006910F0030F1D
:1046000002D0280000F0D0F8B00307D5F80605D591
:10461000102029684860280000F0C7F8F00307D58B
:10462000380705D5082029684860280000F0BEF842
:10463000300447D5780742D5F00506D51BF00100B8
:10464000C0B2002801D054F00104B00504D55FEADF
:104650008B7001D554F00204700504D55FEA4B70ED
:1046600001D554F00404300529D51BF0700F26D075
:104670001BF0700010280AD020280BD030280CD056
:1046800040280DD050280ED060280FD011E054F0F3
:1046900008040EE054F010040BE054F0200408E08D
:1046A00054F0400405E054F0800402E054F48074B7
:1046B000FFE72868806930F070002968886104206D
:1046C00029684860002C05D0686A20436862280089
:1046D00000F06DF8BDE8F18F30B4020092F83C00B4
:1046E000012801D102203CE0012082F83C00022098
:1046F00082F83D00106843681068846833F07003E6
:1047000008680343106843601068174DA8421BD027
:104710001068B0F1804F17D01068144DA84213D024
:104720001068134DA8420FD01068124DA8420BD04C
:104730001068114DA84207D01068104DA84203D050
:1047400010680F4DA84205D134F080044868044336
:1047500010688460012082F83D00002082F83C004F
:10476000002030BC70470000000001400004004001
:1047700000080040000C00400004014000400140DF
:104780000018004070477047704770477047704787
:104790007047704770477047704770477047704761
:1047A0007047704770477047704770477047704751
:1047B000FEE7FEE7FEE7FEE7FEE77047704770475B
:1047C00080B500F033F801BD80B51148FCF7D9FD84
:1047D00001BD80B50F48FCF7D4FD01BD80B50E4882
:1047E000FFF768FE01BD80B50C48FFF717FB01BD60
:1047F00080B50B48FBF79CFD01BD80B50948FFF76C
:104800000DFB01BD80B50848FCF7BBFD01BD0000F4
:104810001C010020BC000020280300200C02002006
:10482000E4020020540200205C00002003480168DC
:10483000034A127889180160704700BFB403002052
:104840005800002030B4002512E050F8042BD307A4
:1048500044BF4A44521E091F042942F8045BFAD29D
:1048600013468C0744BF15809B1CC90748BF1D70A9
:1048700050F8041B0029E8D130BC704710B5074937
:1048800079441831064C7C44163404E00A68081D4B
:10489000114488470146A142F8D110BD2C00000008
:1048A000480000004EF68851CEF20001086840F43E
:1048B00070000860BFF34F8FBFF36F8F4FF0017030
:1048C000E1EE100A704700007DFFFFFF6C0300005F
:1048D0005C0000200000000083E3FFFFF8010000FF
:1048E000900000000000002000F00DF8002801D02A
:1048F000FFF7C4FFAFF300800020AFF30080FDF7A7
:104900004CFB00F002F80120704700F001B80000F5
:104910000746384600F002F8FBE7000080B5AFF329
:104920000080024A11001820ABBEFBE726000200FF
:104930000448016851F4700101605FF000600249B1
:104940000860704788ED00E008ED00E0054801468A
:1049500003B4684680F30988AFF30080FFF7A2FF35
:10496000FFF7C2FFA5EDF5FE00000000000000000B
:10497000010203040607080901488047014800476F
:10498000314900084D4900080006101600061016AF
:104990000000000001020304FFF7FEBFFFF7FEBFA7
:1049A000FFF7FEBFFFF7FEBFFFF7FEBFFFF7FEBF3B
:1049B000FFF7FEBFFFF7FEBFFFF7FEBFFFF7FEBF2B
:1049C000FFF7FEBFFFF7FEBFFFF7FEBFFFF7FEBF1B
:1049D000FFF7FEBFFFF7FEBFFFF7FEBFFFF7FEBF0B
:1049E000FFF7FEBFFFF7FEBFFFF7FEBFFFF7FEBFFB
:1049F000FFF7FEBFFFF7FEBFFFF7FEBFFFF7FEBFEB
:104A0000FFF7FEBFFFF7FEBFFFF7FEBFFFF7FEBFDA
:104A1000FFF7FEBFFFF7FEBFFFF7FEBFFFF7FEBFCA
:104A2000FFF7FEBFFFF7FEBFFFF7FEBFFFF7FEBFBA
:104A3000FFF7FEBFFFF7FEBFFFF7FEBFFFF7FEBFAA
:104A4000FFF7FEBFFFF7FEBFFFF7FEBFFFF7FEBF9A
:104A5000FFF7FEBFFFF7FEBFFFF7FEBFFFF7FEBF8A
:104A6000FFF7FEBFFFF7FEBFFFF7FEBFFFF7FEBF7A
:104A7000FFF7FEBFFFF7FEBFFFF7FEBFFFF7FEBF6A
:104A8000FFF7FEBFFFF7FEBFFFF7FEBFFFF7FEBF5A
:104A9000FFF7FEBFFFF7FEBFFFF7FEBFFFF7FEBF4A
:104AA000FFF7FEBFFFF7FEBFFFF7FEBFFFF7FEBF3A
:104AB000FFF7FEBFFFF7FEBFFFF7FEBFFFF7FEBF2A
:104AC000FFF7FEBFFFF7FEBFFFF7FEBFFFF7FEBF1A
:104AD000FFF7FEBF030000A040FD000C3F00008078
:104AE0003E000048C200004842FD002020040000B3
:104AF0002008000020B840023D0000A0C00000A037
:104B0000400C000020100000206F12833AEC0000DF
:0C4B100010FC000724F400E803C80001BA
:040000050800494D59
:00000001FF
