:020000040800F2
:10000000D80700204D4B00088549000887490008A3
:10001000894900088B4900088D490008000000004C
:100020000000000000000000000000008F490008F0
:100030009149000800000000934900089549000814
:100040006D4B0008714B0008754B0008794B000898
:100050007D4B0008814B0008854B0008894B000848
:100060008D4B0008914B0008954B0008994B0008F8
:100070009D4B0008A14B0008A54B0008A94B0008A8
:100080009D490008A7490008AD4B0008B14B000886
:10009000B1490008B54B0008B94B0008BD4B00083A
:1000A000C14B0008C54B0008C94B0008CD4B0008E8
:1000B000D14B0008D54B0008BB490008D94B0008BC
:1000C000DD4B0008E14B0008E54B0008E94B000858
:1000D000ED4B0008F14B0008C5490008F54B00083E
:1000E000F94B0008FD4B0008014C0008054C0008C6
:1000F000094C00080D4C0008114C0008154C000874
:10010000194C00081D4C0008CF490008214C00087C
:10011000254C0008294C00082D4C0008314C0008E3
:10012000D9490008354C0008394C00083D4C0008FE
:10013000414C00080000000000000000454C000891
:10014000494C00084D4C0008514C0008554C000823
:10015000594C00085D4C0008614C0008654C0008D3
:10016000694C00086D4C0008714C0008754C000883
:10017000794C00087D4C0008814C0008000000000C
:1001800000000000854C0008000000000000000096
:10019000894C000800000000000000008D4C0008A1
:1001A000000000000000000000000000914C00086A
:1001B000954C0008994C00089D4C0008A14C000883
:1001C000A54C000810B50400002C01D1012033E03B
:1001D000A0690028FFD194F83D00002805D1002037
:1001E00084F83C00200000F0B3FE242084F83D0099
:1001F0002068C06830F400502168C860200000F01A
:100200002BFC2068006930F4904021680861206868
:10021000406930F02A00216848612068C06850F4C5
:1002200000502168C86000202064202084F83D0030
:10023000202084F83E00002010BD73B50400150096
:1002400094F83D00202846D10198002803D02800CA
:1002500080B2002801D101203EE094F83C00012842
:1002600001D1022038E0012084F83C00019820628E
:10027000A584E58400202064212084F83D001748EF
:10028000616BC8631648616B08641648616BC8648B
:100290000020616B086501AE2B009BB22068021D37
:1002A0003168606B00F05FFF7FF0400021680860FC
:1002B000002084F83C002068143050E8000F50F013
:1002C00080000100206810F1140242E800100028AC
:1002D000F1D1002000E0022076BD0000FD050008FD
:1002E000510600082707000870B505000C0016002D
:1002F00095F83E00202819D1002C03D0300080B2A0
:10030000002801D1012012E095F83C00012801D11C
:1003100002200CE0012085F83C0000202863320018
:1003200092B22100280000F02AFA00E0022070BDFD
:100330002DE9FC470600306807683068D0F80C806B
:100340003068D0F814900020002517F00F04002C1E
:1003500008D1B80606D55FEA886003D5300000F002
:1003600002FB49E1002C00F080805FEAC97002D4F2
:1003700018F4907F79D017F00100C0B2002806D0A1
:100380005FEAC85003D5306C50F001003064780744
:1003900008D519F00100C0B2002803D0306C50F02D
:1003A00002003064B80708D519F00100C0B2002877
:1003B00003D0306C50F00400306438070BD55FEA8E
:1003C000886004D419F00100C0B2002803D0306C5A
:1003D00050F008003064306C002845D0B80605D5D0
:1003E0005FEA886002D5300000F0BDFA30684069ED
:1003F000800910F001000500306C000701D4002DC9
:100400002DD0300000F02BFA30684069400622D52C
:100410003068143050E8000F30F0400001003068C0
:1004200010F1140242E800100028F1D1B06B00284E
:100430000DD00FF29540B16B0865B06B00F027FF4F
:10044000002811D0B06BB16B096D88470CE030000B
:1004500001F0BAF808E0300001F0B6F804E030002E
:1004600001F0B2F800203064C6E0306B012840F0A3
:10047000B180F80640F1AE805FEAC86040F1AA8022
:10048000002000903068006800903068406800905C
:1004900000983068406940065BD5B06B0068D0F8C2
:1004A00004A0504680B2002852D05046B18D80B290
:1004B00088424DD2A6F82EA0B06BC069B0F5807FFF
:1004C0003FD030680C3050E8000F30F480700100ED
:1004D000306810F10C0242E800100028F1D13068B9
:1004E000143050E8000F400840000100306810F15F
:1004F000140242E800100028F1D13068143050E8AE
:10050000000F30F040000100306810F1140242E8A2
:1005100000100028F1D1202086F83E000020306332
:1005200030680C3050E8000F30F0100001003068E7
:1005300010F10C0242E800100028F1D1B06B00F07D
:1005400058FEB18DF08D091A89B2300001F03DF8E6
:1005500052E0B08DB6F82EA0B0EB0A0AF08D00285C
:1005600037D0504680B2002833D030680C3050E885
:10057000000F30F490700100306810F10C0242E876
:1005800000100028F1D13068143050E8000F400806
:1005900040000100306810F1140242E80010002809
:1005A000F1D1202086F83E000020306330680C3006
:1005B00050E8000F30F010000100306810F10C021C
:1005C00042E800100028F1D1514689B2300000F015
:1005D000FCFF11E0380606D55FEA086003D530005D
:1005E00000F07EF908E0780606D55FEA486003D59A
:1005F000300000F0A8F9FFE7BDE8F38738B5040044
:10060000A56B20680068C0051ED40020E884286817
:10061000143050E8000F30F080000100286810F11D
:10062000140242E800100028F1D128680C3050E88C
:10063000000F50F040000100286810F10C0242E861
:1006400000100028F1D102E0280000F0BFFF31BD0A
:1006500038B50400A56B280000F0B9FF31BD38B5EE
:100660000400A56B20680068C0053FD40020E88521
:1006700028680C3050E8000F30F4807001002868C2
:1006800010F10C0242E800100028F1D12868143063
:1006900050E8000F400840000100286810F11402E3
:1006A00042E800100028F1D12868143050E8000F0B
:1006B00030F040000100286810F1140242E80010F8
:1006C0000028F1D1202085F83E00286B01280DD1AB
:1006D00028680C3050E8000F30F010000100286846
:1006E00010F10C0242E800100028F1D1286B01281B
:1006F00004D1A98D280000F068FF02E0280000F076
:1007000067FF31BD38B50400A56B286B012806D101
:10071000A98D490889B2280000F057FF02E028009F
:1007200000F057FF31BDF8B506000020B76B3968FF
:100730004C69E40914F0010497F83D10212906D111
:10074000002C04D00020F884380000F076F83868D7
:100750004569AD0915F0010597F83E00222806D13C
:10076000002D04D00020F885380000F078F8386CAF
:1007700050F010003864380000F026FFF1BD73B56A
:10078000040015000198A062A585002020642220A5
:1007900084F83E00DFF8BC05A16BC863DFF8B8053C
:1007A000A16B0864DFF8B405A16BC8640020A16BDD
:1007B000086501AE2B009BB232682068011DA06B5A
:1007C00000F0D1FC002000902068006800902068B4
:1007D000406800900098002084F83C0020690028C0
:1007E0000DD020680C3050E8000F50F480700100EC
:1007F000206810F10C0242E800100028F1D12068B6
:10080000143050E8000F50F001000100206810F192
:10081000140242E800100028F1D12068143050E89A
:10082000000F50F040000100206810F1140242E86F
:1008300000100028F1D1002076BD01680C3151E88C
:10084000001F31F0C0010A00016811F10C0343E8F8
:1008500000210029F1D1202180F83D107047016866
:100860000C3151E8001F31F490710A00016811F158
:100870000C0343E800210029F1D10168143151E84B
:10088000001F490849000A00016811F1140343E8F8
:1008900000210029F1D1016B01290DD101680C3132
:1008A00051E8001F31F010010A00016811F10C033A
:1008B00043E800210029F1D1202180F83E100021D9
:1008C000016370470000000038B50400A56B0020EC
:1008D000E8850020E884280000F076FE31BD0000A5
:1008E000010091F83D0021282BD18868B0F5805F88
:1008F0000DD1086900280AD1086A02001088C005D5
:10090000C00D0B685860086A801C086205E0086A20
:10091000431C0B6200780B685860C88C401EC8846A
:1009200080B200280BD10868C06830F080000B68E6
:10093000D8600868C06850F040000B68D86000209C
:1009400000E00220704710B504002068C06830F055
:1009500040002168C860202084F83D00200000F09D
:1009600035FE002010BD7CB5040094F83E0022281E
:1009700070D1A068B0F5805F0DD1206900280AD140
:100980000025A66A20684068C005C00D3080A06AB6
:10099000801CA06217E0A56A0026A068B0F5805F01
:1009A00005D0A068002806D12069002803D120685E
:1009B0004068287004E02068406810F07F002870CC
:1009C000A06A401CA062E08D401EE08580B2002835
:1009D0003ED12068C06830F020002168C8602068DF
:1009E000C06830F480702168C860206840694008A1
:1009F000400021684861202084F83E00206B0128D7
:100A000021D10020206320680C3050E8000F30F026
:100A100010000100206810F10C0242E800100028CC
:100A2000F1D120680068C00608D500200090206839
:100A3000006800902068406800900098A18D200018
:100A400000F0C3FD02E0200000F0C2FD002002E043
:100A5000002000E0022076BD2DE9F84F84B00500AB
:100A60002868016931F44051E86801432868016150
:100A7000D5F808B0286950EA0B0B686950EA0B0BEF
:100A8000E86950EA0B0B2868C168B54801405BEA89
:100A900001012868C1602868416931F44071A86982
:100AA0000143286841612868AE49884203D028681C
:100AB000AD49884203D100F03BFE040002E000F0A3
:100AC0002CFE0400E869B0F5004F40F0A1807FF0F3
:100AD000630A022600275FF019085FF00009220070
:100AE0000023A8FB020108FB031109FB0211CDE959
:100AF000000168680021A6FB002306FB013307FB09
:100B00000033DDE9000100F02DFE6421B0FBF1F0BF
:100B1000039022000023A8FB020108FB031109FB3C
:100B20000211CDE9000168680021A6FB002306FB45
:100B3000013307FB0033DDE9000100F013FE0290F2
:100B400022000023A8FB020108FB031109FB02118C
:100B5000CDE9000168680021A6FB002306FB0133F4
:100B600007FB0033DDE9000100F0FCFD6421B0FB70
:100B7000F1F102980AFB0101C80032306421B0FB98
:100B8000F1F0400010F4F870039910EB011002909E
:100B900022000023A8FB020108FB031109FB02113C
:100BA000CDE9000168680021A6FB002306FB0133A4
:100BB00007FB0033DDE9000100F0D4FD00902200C6
:100BC0000023A8FB020108FB031109FB0211804668
:100BD000894668680021A6FB002306FB013307FB5A
:100BE00000334046494600F0BDFD6421B0FBF1F101
:100BF00000980AFB010A5FEACA0032306421B0FBA8
:100C0000F1F111F0070102980918286881609EE04F
:100C1000042600277FF0630A5FF019085FF00009DF
:100C200022000023A8FB020108FB031109FB0211AB
:100C3000CDE9000168680021A6FB002306FB013313
:100C400007FB0033DDE9000100F08CFD6421B0FBFF
:100C5000F1F0039022000023A8FB020108FB03111E
:100C600009FB0211CDE9000168680021A6FB002301
:100C700006FB013307FB0033DDE9000100F072FDE4
:100C8000029022000023A8FB020108FB031109FBCC
:100C90000211CDE9000168680021A6FB002306FBD4
:100CA000013307FB0033DDE9000100F05BFD642147
:100CB000B0FBF1F102980AFB010108013230642116
:100CC000B0FBF1F010F0F000039910EB011002906E
:100CD00022000023A8FB020108FB031109FB0211FB
:100CE000CDE9000168680021A6FB002306FB013363
:100CF00007FB0033DDE9000100F034FD0090220025
:100D00000023A8FB020108FB031109FB0211804626
:100D1000894668680021A6FB002306FB013307FB18
:100D200000334046494600F01DFD6421B0FBF1F15F
:100D300000980AFB010A5FEA0A1032306421B0FB16
:100D4000F1F111F00F01029809182868816005B0CF
:100D5000BDE8F08F5F0600080507000827070008B8
:100D6000F369FFFF001001400014014081B0002032
:100D70000090DFF8D002016851F480410160006802
:100D800010F480400090009800200090DFF8B80236
:100D9000016851F080510160006810F080500090AF
:100DA000009801B0704738B586B0040014220021C5
:100DB00001A800F0EFFD2068DFF89012884243D1CF
:100DC000002000909F48016851F480710160006824
:100DD00010F4807000900098002000909C480168FA
:100DE00051F001010160006810F0010000900098CE
:100DF00010200190032002900020039001A9954843
:100E000000F0D2FD944D95482860002068600020D5
:100E1000A8600020E8604FF4806028614FF4006013
:100E200068614FF40050A8614FF48070E8610020C1
:100E3000286200206862280000F024F9002801D010
:100E400001F036FBA563AC6307B030BD10B586B0CA
:100E500004001422002101A800F09CFD20688049B4
:100E600088422ED1002000907748016851F000712F
:100E70000160006810F00070009000980020009061
:100E80007348016851F001010160006810F0010031
:100E9000009000984FF4C050019002200290002072
:100EA0000390032004900920059001A9694800F0EF
:100EB0007BFD00220021142001F076FB142001F0BC
:100EC00088FB06B010BD1CB5040020686549884247
:100ED00014D1002000905C48016851F004010160C9
:100EE000006810F0040000900098002200211E20ED
:100EF00001F05AFB1E2001F06CFB28E020685A49E3
:100F0000884214D1002000904F48016851F0080138
:100F10000160006810F00800009000980022002195
:100F2000322001F041FB322001F053FB0FE020683A
:100F30004E4988420BD1002000904348016851F08F
:100F400020010160006810F020000090009813BD9F
:100F5000F8B586B004001422002101A800F01AFDA3
:100F60002068434988426AD10020009036480168D1
:100F700051F400310160006810F4003000900098D6
:100F8000002000903248016851F0010101600068C2
:100F900010F00100009000980C20019002200290B7
:100FA00000200390032004900720059001A9294800
:100FB00000F0FAFC2F4D304828605FF000666E604C
:100FC0004020A8600020E8604FF480672F61002077
:100FD00068610020A8610020E861002028620020EC
:100FE0006862280000F04EF8002801D001F060FA95
:100FF0006563AC63214D224828606E600020A860C4
:101000000020E8602F61002068610020A8614FF493
:101010008070E8610020286200206862280000F0EB
:1010200031F8002801D001F043FAA563AC63002237
:101030000021262001F0B8FA262001F0CAFA07B0F4
:10104000F0BD00004438024040380240002001401A
:10105000303802400000024060000020106402406E
:101060000064004000080040000C004000140040F4
:1010700000440040C0000020A06002402001002089
:101080008860024070B50400002601F0BFFA050038
:10109000002C01D1012065E0606A0028022084F85C
:1010A0003500002084F834002068006840084000C3
:1010B0002168086020680068C0070BD501F0A6FA17
:1010C000401B0628F6D320206065032084F83500F5
:1010D000032047E020680168DFF8440401406068AD
:1010E0000143A0680143E06801432069014360694E
:1010F0000143A0690143E0690143206A0143606A3A
:10110000042803D1E06A0143206B01432068016099
:1011100020684669F608F600606A0643606A04289B
:1011200010D1A06A0643E06A00280BD0200000F02E
:10113000FDF9002806D040206065012084F83500C4
:1011400001200FE020684661200000F0CFF9010087
:101150003F22E06D82408A6000206065012084F8B3
:101160003500002070BD2DE9F84304000D00160085
:101170001F005FF00008D4F8589094F8340001285C
:1011800001D1022033E0012084F8340094F83500C6
:10119000012825D1022084F83500002060653B003D
:1011A00032002900200000F08AF93F21E06D8140E3
:1011B000C9F808102068006850F01600216808601F
:1011C000206C002805D02068006850F008002168D5
:1011D00008602068006850F001002168086004E0A1
:1011E000002084F83400022080464046C0B2BDE8AA
:1011F000F28370B50400A56D01F008FA060094F8BA
:101200003500022806D080206065002084F8340074
:1012100001203BE02068006830F01600216808607B
:101220002068406930F0800021684861206C002807
:1012300002D1A06C002805D02068006830F00800BA
:101240002168086020680068400840002168086044
:1012500020680068C0070ED501F0D8F9801B062869
:10126000F6D320206065032084F83500002084F840
:10127000340003200AE03F21E06D8140A960012095
:1012800084F83500002084F83400002070BD01008F
:1012900091F83500022803D080204865012009E03C
:1012A000052081F8350008680068400840000A6899
:1012B000106000207047F8B5040000200090DFF8AF
:1012C000640200684FF41651B0FBF1F5A66D376863
:1012D0000821E06D11FA00F0074210D02068006884
:1012E00040070CD52068006830F0040022681060C8
:1012F000E06D8140B160606D50F001006065E06DAF
:101300003900C140C8070BD520684069000607D5E1
:101310000121E06D8140B160606D50F002006065B8
:101320000421E06D11FA00F007420AD0206800683D
:10133000800706D5E06D8140B160606D50F004001B
:1013400060651021E06D11FA00F007422CD0206892
:101350000068000728D5E06D8140B1602068006812
:10136000400311D520680068000306D4206C0028D3
:101370001AD02000216C884716E0A06C002813D0FA
:101380002000A16C88470FE020680068C00505D4E4
:101390002068006830F0080021680860206C002890
:1013A00002D02000216C88472021E06D11FA00F066
:1013B00007425FD020680068C0065BD5E06D8140C1
:1013C000B16094F83500052828D12068006830F015
:1013D0001600216808602068406930F080002168AC
:1013E0004861206C002802D1A06C002805D020683C
:1013F000006830F00800216808603F21E06D8140FE
:10140000B160012084F83500002084F83400206D9C
:10141000002802D02000216D88474FE02068006836
:10142000400311D520680068000306D4606C0028D2
:1014300020D02000616C88471CE0E06B002819D0A8
:101440002000E16B884715E020680068C0050BD4D8
:101450002068006830F0100021680860012084F8DE
:101460003500002084F83400E06B002802D0200012
:10147000E16B8847606D002820D0606DC00717D5EC
:10148000052084F835002068006840084000216885
:1014900008600098401C0090854203D320680068D3
:1014A000C007F6D4012084F83500002084F8340009
:1014B000E06C002802D02000E16C8847F1BD30B418
:1014C0000468246834F4802405682C600468636030
:1014D0008468402C04D10468A2600468E16003E0E1
:1014E0000468A1600468E26030BC7047017801F0D4
:1014F000FF0110391822B1FBF2F10B4A525CC265B0
:10150000042905D30268920A9202121D826503E043
:101510000268920A92028265806D704700000000A6
:101520003F8010F0540000205C4B000810B4020013
:101530000020936A9169002916D1002B05D0022B57
:1015400003D008D3032B0DD00DE0D16AC90101D51A
:101550000121080035E0D16AB1F1C07F01D101213C
:1015600008002EE02DE02CE09169B1F5005F18D164
:10157000002B05D0022B03D005D3032B09D00FE09D
:10158000012108001DE0D16AC90101D5012108002F
:1015900017E0D16AB1F1C07F01D10121080010E04C
:1015A0000FE019000029022902D9C91E03D008E062
:1015B0000121080005E0D16AC90101D50121080017
:1015C000FFE7C0B210BC7047704770477047704764
:1015D000704770472DE9F04104000D00002C01D147
:1015E000012095E0584F386810F00F00A84207D24C
:1015F0003D70386810F00F00A84201D0012087E04C
:101600002078800716D52078400704D54F48016818
:1016100051F4E05101602078000704D54B4801687F
:1016200051F46041016049490A6832F0F002A06853
:1016300002430A602078C00738D56068012805D1C8
:1016400043480068800313D4012061E060680228E9
:1016500002D06068032805D13D480068800107D4A6
:10166000012055E03A480068800701D401204FE08E
:10167000DFF8D880D8F80010890889006068014335
:10168000C8F8001000F0C2FF0600D8F8000010F003
:101690000C006168B0EB810F08D000F0B7FF801B31
:1016A00041F289318842F0D3032031E0386810F0EC
:1016B0000F00854207D23D70386810F00F00A84235
:1016C00001D0012024E02078400706D51F490A6890
:1016D00032F4E052E06802430A602078000707D540
:1016E0001A48016831F46041226951EAC20101607F
:1016F00000F092FF1749154A1268C2F30312895C81
:10170000C840154908601548006801F025FA002016
:10171000BDE8F08110480068704780B5FFF7FAFF18
:101720000F490A4A1268C2F38222895CC84002BD8E
:1017300080B5FFF7EFFF0A49044A1268C2F342324C
:10174000895CC84002BD0000003C024008380240ED
:10175000003802403C4B000854000020500000209C
:10176000644B0008BBBBE1B1B2F5803F80F07E80E6
:10177000022A1ED98C46B1FBF2F102FB11C31B04F5
:1017800043EA1043B3FBF2FC02FB1C3380B240EA95
:101790000343B3FBF2F002FB103240EA0C4000239B
:1017A0007047022A05D98446B0FBF2F002FB10C252
:1017B00070474AB105D100F0010249085FEA3000E4
:1017C000704700220023704701F0ECB90B000200C3
:1017D000002100207047904271EB030CF6D3B3F563
:1017E000803F2FD2F0B5B3FA83F7B1FA81F4A7F1B5
:1017F0000F0E3D1B5340CEF1200602FA0EF2F341CC
:101800005340B5F10F0746D80F3C2C444140C4F17A
:101810002006A040F1414140B1FBF3F603FB161155
:10182000A2FB0645001BA94102D2761E8018594131
:1018300080EA010221FA0EF362FA0EF200215A4008
:101840003046F0BD30B4B1FBF3FC03FB1C11A2FB2E
:101850000C45001BA94103D2ACF1010C8018594181
:1018600030BC02460B46604600217047B2F1807FD3
:1018700065D3F0B5B2FA82F7B1FA81F4C7F10F0679
:101880003D1B22FA06F307F1110EF24120355A40B2
:10189000B5F10F07B8D94140C4F12006A040F1418D
:1018A0004140B1FBF3FC03FB1C11A2FB0C45001BE8
:1018B000A94103D2BCF1010C801859410F2F12D35A
:1018C0000F3FC90341EA5041B1FBF3F603FB161188
:1018D000A2FB0645D4EBC030A94102D2761E801887
:1018E000594146EACC3C07B34140C7F12006B84015
:1018F000F1414140B1FBF3F603FB1611A2FB064593
:10190000001BA94102D2761E8018594180EA0102CB
:1019100021FA0EF3C7F1200462FA0EF20CFA07F076
:101920005A402CFA04F13043F0BD80EA010221FA5A
:101930000EF3002162FA0EF260465A40F0BD8C466A
:10194000B1FBF2F102FB11C31B0243EA1063B3FBCC
:10195000F2FC02FB1C331B024CEA002043EA10633A
:10196000B3FBF2FC02FB1C331B024CEA002043EAEF
:101970001063B3FBF2FC02FB1C331B024CEA002099
:1019800043EA1063B3FBF2FC02FB1C324CEA00207A
:101990000023704710B5044610460A46014620460B
:1019A00001F01EF9204610BDF8B5002300240025E3
:1019B0000026102E80F00281012717FA06F213008C
:1019C0000A681A4014009C4240F0F6800A7912F02E
:1019D0000302012A04D00A7912F00302022A1FD15D
:1019E000D0F808C05FF0030E3200D2B252001EFAE7
:1019F00002FE3CEA0E0CD1F80CE03200D2B25200EA
:101A00001EFA02FE5EEA0C0CC0F808C04268B7403D
:101A1000BA434F68C7F30017B7403A431500456013
:101A20000A7912F00302032A14D0C7685FF0030C8E
:101A30003200D2B252001CFA02FC37EA0C07D1F88D
:101A400008C03200D2B252001CFA02FC5CEA07075E
:101A50003D00C5600A7912F00302022A1ED132004D
:101A6000D20800EB8202176A5FF00F0C16F0070233
:101A7000D2B292001CFA02FC37EA0C07D1F810C06F
:101A800016F00702D2B292001CFA02FC5CEA0707C9
:101A90003D003200D20800EB8202156207685FF059
:101AA000030C3200D2B252001CFA02FC37EA0C07D7
:101AB00091F804C01CF0030C3200D2B252001CFAA0
:101AC00002FC5CEA07073D0005604A6812F4403FEB
:101AD00072D0002200923A4A176857F48047176084
:101AE000126812F480420092009ADFF8D8C03200E7
:101AF00092085CF822705FF00F0E16F00302D2B26B
:101B000092001EFA02FE37EA0E072F4A904201D1D8
:101B100000251EE02D4A904201D1012519E02C4AF2
:101B2000904201D1022514E02A4A904201D10325B6
:101B30000FE0294A904201D104250AE0274A904249
:101B400001D1052505E0264A904201D1062500E095
:101B50000725EDB216F00302D2B2920095402F4352
:101B6000320092084CF822701E4D2A68A243D1F828
:101B700004C05FEACC2C00D522432A601A4F3D688E
:101B8000A543D1F804C05FEA8C2C00D525433D6005
:101B9000164F3A68A243D1F804C05FEA8C3C00D5E6
:101BA00022433A60124F3D68A543D1F804C05FEA72
:101BB000CC3C00D525433D60761CFAE6F1BD000023
:101BC000443802400838014000000240000402404E
:101BD00000080240000C02400010024000140240C5
:101BE00000180240083C01400C3C0140043C01400C
:101BF000003C01402DE9F04F85B00024002C43D07B
:101C0000DFF8C4572878AA2837D10426681C049026
:101C1000DFF8B87732000499380001F015F804278E
:101C2000681D0390DFF8A8873A000399404601F049
:101C30000BF85FF0040815F109000290DFF89497A3
:101C400042460299484600F0FFFF5FF0040915F193
:101C50000D000190DFF880A74A460199504600F038
:101C6000F3FF5FF0040A15F111000090DFF86CB784
:101C700052460099584600F0E7FF2878FE2803D125
:101C80000120DFF85C17087005B0BDE8F08F38B5AB
:101C90000400DFF850572B00DFF84C27002120000C
:101CA00001F070FA002802D1280001F043FC31BD98
:101CB0002DE9FE4F8046D8F80000DFF83C17884237
:101CC00008D1DFF8380790ED000ADFF82007007828
:101CD00001F0C1FCD8F80000DFF82417884240F07A
:101CE0002F815FF00209DFF81C47DFF81C572888B6
:101CF00000EE100AB8EE400A4FF47A704946C9B2B5
:101D000090FBF1F000EE900AF8EEE00A80EE200A77
:101D100010EE100A01F0C6FCDFF8F026DFF8F0360E
:101D200001F0E4FC01F0B8FD00EE100A01F0CEFE77
:101D3000F7EE000A30EEC00ADFED820AB3EE0E1AAB
:101D400000EE201A84ED001ADFF8C866DFF8C80636
:101D5000008800EE100AB8EE400AF7EE000A80EEA6
:101D6000800A86ED000ADFF8B476DFF8B406008852
:101D700001F0AEFEDFF89426DFF8A83601F0B6FCDD
:101D800001F08AFD3860B7EE000AD7ED000A80EE58
:101D9000200ADFF8940680ED000ADFF89016B0EE16
:101DA000000AD6ED000A80EE200AD7ED000A30EED8
:101DB000200AD7ED000A80EE800A81ED000ADFF8E4
:101DC00070060A680260DFF86C26B0EE000AD6EDF5
:101DD000000A80EE200AD7ED000A30EE600AF0EE2D
:101DE000000A96ED001AC0EE810A97ED001A70EE17
:101DF000810A80EE200A82ED000ADFF83CA6DFF8B7
:101E00003C361B8800EE103AB8EE400AD1ED000ACD
:101E100020EE200ADFF82816098800EE901AF8EE66
:101E2000600A90ED001A00EE810AD2ED000ADFF898
:101E3000140690ED001A00EE810A8AED000ADFF820
:101E40000866DFF8080600683080DFF8040601F055
:101E50007FFE2888401C28802888B0F57A7F06D12C
:101E6000DFF8F0050188491C018000202880DFF898
:101E7000E815DFF8E8251088022390FBF3F30F88BC
:101E800030883F1ABB4205DADFF8D4050188491CC7
:101E900001800DE01088022290FBF2F2338808885E
:101EA0001B1A9A4204DADFF8B8050188491E01803E
:101EB000DFF82C050178012905D10021DFF89425F0
:101EC000118000210170DFF88C050088032803D100
:101ED000DFF8200502F0F2F902260195DFF88455BB
:101EE000AF1C32000199380000F0AEFE0427CDF897
:101EF00000A015F1040A3A000099504600F0A4FE33
:101F00005FF0040A15F1080B52462100584600F014
:101F10009BFE0E222900DFF85005FEF78EF9FFF731
:101F200069FEDFF84805DFF8C8140968496A0180CE
:101F3000DFF83C150A8803889A4201D2008808809D
:101F4000BDE8F78F0000484210B58AB002F088FC67
:101F500000F050F800F0FFF900F0CCF900F08AF939
:101F600000F0AFF900F09FF800F0D9F800F0F9F8B0
:101F700000F033F900200590002006900020079023
:101F8000002001900020039000200090002002908B
:101F90000020049001200890DFF8D8446946200012
:101FA00000F05CFF200000F0EDFF0221200001F0B6
:101FB00095F9DFF8C40402F03AF91522DFF8BC14F1
:101FC000DFF8A404FEF790F90122DFF87014DFF8BF
:101FD000800401F055FEDFF88C04AA210170AA21CB
:101FE0004170BB210173BB214173DFF8940402F0FF
:101FF00051FCFEE718B593B03421002206AC200056
:1020000000F0EEFD1421002201AC200000F0E8FDFC
:1020100000200090DFF86C04016851F080510160ED
:10202000006810F080500090009800200090DFF8C9
:102030005804016851F440410160006810F44040C8
:1020400000900098022006900120099010200A902C
:1020500002200C9000200D9008200E90A0200F90E0
:1020600002201090022011900220129006A800F089
:1020700053FB002801D000F01BFA0F200190022032
:102080000290002003904FF4A05004904FF4805031
:102090000590052101A8FFF79DFA002801D000F066
:1020A00007FA14B010BD1FB5102100226C462000A5
:1020B00000F096FDDFF89843DFF8D00320605FF46E
:1020C000803060600020A060012020610020207628
:1020D000002084F820000020E062DFF8B403A06252
:1020E0000020E0600120E061012084F83000012040
:1020F0006061200001F0FAFC002801D000F0D8F95E
:1021000004200090012001900020029069462000E8
:1021100001F07AFE002801D000F0CAF91FBD80B599
:10212000D448DC4901600421416000218160002124
:10213000C1605FF4E021016100214161002101766D
:1021400000214176002181760021C17600210177AE
:102150000021417700F0CCFD002801D000F0A8F963
:1021600001BD10B586B01021002202AC200000F0A5
:1021700037FD082100226C46200000F031FD9C4C08
:102180009F482060012060600020A06049F63F4029
:10219000E060002020610020A061200002F010F823
:1021A000002801D000F084F94FF48050029002A979
:1021B000200002F09AF9002801D000F079F90020FF
:1021C0000090002001906946200002F06FFB00287B
:1021D00001D000F06DF906B010BD18B58BB010211C
:1021E000002207AC200000F0FBFC1421002202AC0E
:1021F000200000F0F5FC082100226C46200000F0D1
:10220000EFFC7C4C7C482060012060600020A060D6
:10221000A148E060002020610020A061200001F0C2
:10222000CFFF002801D000F043F94FF48050079011
:1022300007A9200002F059F9002801D000F038F970
:10224000002002902020039002A9200002F0C7F98C
:10225000002801D000F02CF900200090002001900F
:102260006946200002F022FB002801D000F020F98E
:102270000CB010BD1CB5082100226C46200000F0F7
:10228000AFFC7D4C854820604F2060600020A0603E
:102290004FF6FF70E0600020A061200001F090FF89
:1022A000002801D000F004F90020009000200190E7
:1022B0006946200002F0FAFA002801D000F0F8F890
:1022C00013BD80B5684876490160764941600021B8
:1022D00081600021C160002101610C214161002168
:1022E00081610021C161FDF76DFF002801D000F080
:1022F000DFF801BD80B5002000906B48016851F403
:1023000000110160016811F4001100910099002191
:102310000091016851F480010160006810F48000B0
:102320000090009800220021102000F03DF91020BC
:1023300000F04FF900220021112000F035F91120A2
:1023400000F047F900220021382000F02DF9382054
:1023500000F03FF901BD10B586B01421002201AC98
:10236000200000F03DFC002000904F48016851F033
:1023700004010160016811F004010091009900213D
:102380000091016851F080010160016811F0800145
:102390000091009900210091016851F00101016054
:1023A000006810F00100009000984FF40050019078
:1023B0005FF4881002900020039001A93B48FFF7CA
:1023C000F3FA06B010BD000040030020000000201A
:1023D00004000020080000200C0000201000002055
:1023E000D2030020800300200C0300205E000020A8
:1023F000C801002010020020000C00404C0000200A
:1024000000080040A8030020C6030020182D4454F3
:10241000FB210940880300205A000020900300207F
:102420005C000020FB2119408C0300209403002055
:10243000980300209C030020A0030020CA03002072
:10244000CC030020A4030020C0030020241400407B
:1024500080010020C8030020C20300205800002093
:10246000C403002070030020A0020020CE0300203F
:10247000D0030020E402002058020020280300209E
:10248000140000204038024000700040002001404D
:102490000100000F006400403F0D030000140040E5
:1024A0000044004040420F00303802400008024023
:1024B00072B6FEE710B410F00703DFF8304122686F
:1024C0004FF6FF010A4052EA0322DFF824110A43C3
:1024D000226010BC7047DFF814010068C0F30220CE
:1024E0007047010049B2002909D4012210F01F01F0
:1024F0008A40404903005BB25B0941F823207047E2
:1025000010B4020052B2002A05D40A013A4B04006A
:1025100064B21A5508E00A01384B040064B214F0A2
:102520000F04234403F8042C10BC704770B403005C
:1025300013F00704D4F10700052801D3042001E0BB
:10254000D4F10700251D072D01D2002500E0E51E6E
:10255000012616FA00F0401E0140A94016FA05F5C2
:102560006D1E2A401143080070BC704710B504006E
:10257000601EB0F1807F01D301200EE0601E204973
:1025800008600F215FF0FF30FFF7BAFF00201D4900
:10259000086007201C490860002010BD10B5040029
:1025A0002000FFF787FF10BD2DE9F04104000D006A
:1025B00016000027FFF78FFF8046320029004046B3
:1025C000FFF7B4FF0100200040B2FFF799FFBDE81C
:1025D000F08110B50400200040B2FFF782FF10BD6B
:1025E00010B504002000FFF7C1FF10BD0CED00E0A6
:1025F0000000FA0500E100E000E400E018ED00E072
:1026000014E000E018E000E010E000E0014800689D
:10261000704700BFBC0300202DE9F04300240025D3
:10262000002600275FF000083A48006810F00C0010
:10263000002806D0042807D0082808D00C2836D057
:1026400063E0DFF8EC0462E0DFF8E0045FE0DFF86D
:10265000D894D9F8000010F03F000400D9F8000029
:1026600040020DD5D9F80000C0F38810DFF8BC1483
:10267000A1FB000122000023FFF774F805000CE025
:10268000D9F80000C0F38810DFF8A414A1FB000102
:1026900022000023FFF766F80500D9F80000C0F318
:1026A0000140401C40000600B5FBF6F02FE0DFF8CB
:1026B0007894D9F8000010F03F000400D9F8000029
:1026C00040020DD5D9F80000C0F38810DFF85C1483
:1026D000A1FB000122000023FFF744F805000CE0F5
:1026E000D9F80000C0F38810DFF84414A1FB000102
:1026F00022000023FFF736F80500D9F80000C0F3E8
:1027000002700700B5FBF7F001E0DFF82404BDE834
:10271000F0830000083802402DE9F8430400002C43
:1027200001D10120FEE12078C00769D5DFF810044F
:10273000016811F00C01042913D0016811F00C019B
:10274000082904D1DFF8E0130968490209D40068B8
:1027500010F00C000C280ED1DFF8CC03006840020A
:1027600009D5DFF8D4030068800349D560680028E4
:1027700046D10120D6E16068B0F5803F06D1DFF890
:10278000B803016851F48031016018E06068B0F569
:10279000A02F0AD1DFF8A003016851F48021016065
:1027A000016851F48031016009E0DFF88C030168B1
:1027B00031F480310160016831F48021016060688A
:1027C00000280ED0FFF722FF0500DFF86C03006839
:1027D000800315D4FFF71AFF401B6528F5D30320AB
:1027E000A0E1FFF713FF0500DFF84C03006880034A
:1027F00006D5FFF70BFF401B6528F5D3032091E1B9
:10280000207880075BD5DFF83803016811F00C0FE2
:1028100012D0016811F00C01082904D1DFF8081367
:102820000968490208D5006810F00C000C2815D181
:10283000BD480068400211D4DFF8FC020168890736
:1028400004D5E168012901D001206BE1016831F074
:10285000F801226951EAC201016030E0E068002815
:102860001AD00120DFF8DC120860FFF7CFFE050068
:10287000DFF8C4020168890706D4FFF7C7FE401BD2
:102880000328F5D303204DE1016831F0F8012269F6
:1028900051EAC201016012E00020DFF8A8120860CE
:1028A000FFF7B4FE0500DFF890020068800706D548
:1028B000FFF7ACFE401B0328F5D3032032E120785C
:1028C000000727D56069002812D00120DFF87812B0
:1028D0000860FFF79BFE0500DFF8600200688007D4
:1028E00018D4FFF793FE401B0328F5D3032019E10A
:1028F0000020DFF854120860FFF788FE05008F48BB
:102900000068800706D5FFF781FE401B0328F6D339
:10291000032007E1207840077CD50027DFF82C82D0
:10292000D8F80000C0000FD400200090D8F80000B4
:1029300050F08050C8F80000D8F8000010F0805027
:102940000090009801200700DFF80492D9F80000F9
:10295000C00513D4D9F8000050F48070C9F8000005
:10296000FFF754FE0500D9F80000C00506D4FFF7B4
:102970004DFE401B0328F6D30320D3E0A0680128B6
:1029800005D16C48016851F00101016015E0A068B3
:10299000052809D16748016851F004010160016808
:1029A00051F00101016008E06248016849084900EE
:1029B0000160016831F004010160A06800280FD0B7
:1029C000FFF724FE05005B480068800718D4FFF776
:1029D0001DFE401B41F289318842F4D30320A1E05F
:1029E000FFF714FE050053480068800708D5FFF77D
:1029F0000DFE401B41F289318842F4D3032091E05F
:102A00003800C0B2012805D1D8F8000030F080505D
:102A1000C8F80000A069002800F0838048480068DA
:102A200010F00C0008284AD0A069022836D1494F7E
:102A300000203860FFF7EAFD8046DFF8FC90D9F807
:102A40000000800107D5FFF7E1FDB0EB0800032887
:102A5000F3D3032066E0E169206A0143606A51EA2A
:102A60008011A06A4008401E51EA0041E06A51EA24
:102A70000061206B51EA00712B4801600120386031
:102A8000FFF7C4FD0500D9F80000800149D4FFF725
:102A9000BDFD401B0328F6D3032043E000202D4951
:102AA0000860FFF7B3FD050023480068800138D5B2
:102AB000FFF7ACFD401B0328F6D3032032E0A069EA
:102AC000012801D101202DE0174800680600A06907
:102AD000012824D016F48000E16988421FD116F045
:102AE0003F00216A88421AD147F6C0703040616ABF
:102AF000B0EB811F13D116F44030A16A4908491E7A
:102B0000B0EB014F0BD116F07060E16AB0EB016FD2
:102B100005D116F0E040216BB0EB017F01D0012020
:102B200000E00020BDE8F2830438024000127A0081
:102B30000024F4007038024000380240743802402B
:102B40000838024000004742800E474240380240A9
:102B5000007000406000474210B504004FF47A70E6
:102B60000D490978B0FBF1F00C490968B1FBF0F0B0
:102B7000FFF736FD002801D001200CE0102C09D20F
:102B8000002221005FF0FF30FFF70EFD04480460D3
:102B9000002000E0012010BD5F0000205400002054
:102BA00050000020704730B50168846842184168C1
:102BB00002EB5103C90703D54C4401E0491C08D17D
:102BC0009A4218BF12F9011B01D10C3030BD12F826
:102BD000015B002904F8015BF0D4491EF7D5EFE74B
:102BE00062F30F2262F31F42401810F0030308D073
:102BF000C91A1FD3DB0748BF00F8012D28BF20F8F2
:102C0000022D130030B414461546103928BF20E9B0
:102C10003C00FAD8490728BF20E90C0048BF40F81B
:102C2000042D890028BF20F8022D48BF00F8012D8F
:102C300030BC7047C91818BF00F8012DCB0728BF5A
:102C400000F8012D7047000062B38B0708D0521EB8
:102C500011F8013B00F8013B00F024808B07F6D10E
:102C6000830740F0208000BF103A07D330B4B1E8AA
:102C70003810103AA0E83810F9D230BC530724BFFE
:102C8000B1E80810A0E8081044BF51F8043B40F830
:102C9000043BD20724BF31F8022B20F8022B44BF9B
:102CA0000B7803707047121F17D35B0009D151F8DE
:102CB000043B20F8023B1B0C121F20F8023BF6D20B
:102CC0000BE051F8043B00F8013B1B0A20F8023BE3
:102CD0001B0C121F00F8013BF3D238BF121D521E0D
:102CE00024BF11F8013B00F8013BF8D87047000001
:102CF00070B50400002C01D10120AEE094F8200052
:102D0000002802D12000FEF7A1F82068006850F0EA
:102D1000010021680860FFF779FC05002068406821
:102D2000C0070DD4FFF772FC401B0B28F6D3606A76
:102D300050F400306062052084F8200001208CE00F
:102D40002068006830F0020021680860FFF75EFC30
:102D500006002068406880070DD5FFF757FC801BF0
:102D60000B28F6D3606A50F400306062052084F8C6
:102D70002000012071E0207E012806D12068006833
:102D800050F080002168086005E02068006830F09D
:102D9000800021680860607E012806D120680068F4
:102DA00050F040002168086005E02068006830F0BD
:102DB000400021680860A07E012806D120680068D4
:102DC00050F020002168086005E02068006830F0BD
:102DD000200021680860E07E012806D12068006894
:102DE00030F010002168086005E02068006850F0AD
:102DF000100021680860207F012806D12068006843
:102E000050F008002168086005E02068006830F094
:102E1000080021680860607F012806D120680068EA
:102E200050F004002168086005E02068006830F078
:102E3000040021680860A168E0680143206901433B
:102E4000606901436068401E01432068C161002041
:102E50006062012084F82000002070BDF0B4020000
:102E6000146892F820301800C0B2012804D018006D
:102E7000C0B2022840F07F80594DD5F8000250F0D2
:102E80000100C5F80002D5F8000230F47C50C5F806
:102E90000002D5F800024E6A50EA0620C5F800028A
:102EA00001200E7D16F01F0610FA06F6D5F81C025A
:102EB000B043C5F81C02C869002816D1D5F80C0229
:102EC000B043C5F80C02486905EBC000CC684F68F8
:102ED000C7EA0444C0F84042486905EBC0008C686A
:102EE0000F68C7EA0444C0F84442C869012816D1F3
:102EF000D5F80C023043C5F80C02486905EBC00058
:102F00000C684F68C7EA0444C0F84042486905EBC2
:102F1000C0008C68CF68C7EA0444C0F8444288699E
:102F2000002805D1D5F80402B043C5F8040204E036
:102F3000D5F804023043C5F804020869002805D119
:102F4000D5F81402B043C5F8140204E0D5F8140211
:102F50003043C5F81402086A012804D1D5F81C02D0
:102F60003043C5F81C02D5F8000240084000C5F8FF
:102F70000002002004E0506A50F4802050620120DA
:102F8000F0BC704738B5040094F82000012821D126
:102F9000022084F820002068006840084000216872
:102FA0000860FFF733FB050020684068C0070DD5B7
:102FB000FFF72CFB401B0B28F6D3606A50F400305F
:102FC0006062052084F82000012008E00020606293
:102FD000002004E0606A50F400206062012032BDED
:102FE00000640040F0B5040094F820502068866822
:102FF00088680028FFD02800C0B2012804D028002B
:10300000C0B2022840F0848016F0E05F7AD0C6F3A8
:103010000167032F05D3606A50F40000606201204D
:103020007BE00120B8401860886800280BD1086850
:10303000D1F80CC05CEA405C20685FEA071E70446F
:10304000C0F880C10DE04868D1F808C05CEAC00C47
:10305000C86850EA0C0C20685FEA071E7044C0F88C
:1030600080C10869D4F800C05FEA071EF444CCF8B8
:103070008401087D01280ED120685FEA071C6044A6
:10308000D0F8840150F48070D4F800C05FEA071EC5
:10309000F444CCF88401D07992F806C05FEA0C4C75
:1030A0005CEA006C50795CEA002C107950EA0C0C58
:1030B00020685FEA071E7044C0F88CC1D07892F88F
:1030C00002C05FEA0C4C5CEA006C50785CEA002CB1
:1030D000107850EA0C0C20685FEA071E7044C0F8B4
:1030E00088C120685FEA071C6044D0F8800150F076
:1030F0000100D4F800C05FEA071EF444CCF8800158
:1031000000200AE0606A50F400106062012004E0D0
:10311000606A50F4802060620120F0BD0100002050
:1031200091F820201300DBB2012B03D01300DBB297
:10313000022B0ED10B689B685B0100D5401C0B680D
:103140009B681B0100D5401C0B689B68DB0000D509
:10315000401C704710B40200002092F820301C0080
:10316000E4B2012C03D01C00E4B2022C08D1146894
:10317000A46814EA8164B4EB816F01D001242000BB
:1031800010BC704770B4040094F820502800C0B2FE
:10319000012804D02800C0B2022840F098800029FD
:1031A0000AD12068C06810F0030F10D1606A50F493
:1031B0000010606201208FE02068006910F0030FAA
:1031C00005D1606A50F400106062012084E020683C
:1031D0000E013044D0F8B00110F004009060906807
:1031E000002807D120680E013044D0F8B001400D0E
:1031F000106006E020680E013044D0F8B001C0082D
:10320000506020680E013044D0F8B00110F0020088
:10321000D06020680E013044D0F8B40110F00F00E7
:10322000106120680E013044D0F8B401C0F30720CB
:10323000906120680E013044D0F8B401000C506158
:1032400020680E013044D0F8B801187020680E01D3
:103250003044D0F8B801000A587020680E0130449C
:10326000D0F8B801000C987020680E013044D0F8F6
:10327000B801000ED87020680E013044D0F8BC01AF
:10328000187120680E013044D0F8BC01000A587152
:1032900020680E013044D0F8BC01000C9871206801
:1032A0000E013044D0F8BC01000ED871002906D1BF
:1032B0002068C06850F020002668F06005E02068B3
:1032C000006950F0200026683061002004E0606A48
:1032D00050F480206062012070BC704710B402007E
:1032E00092F820301800C0B2012803D01800C0B2F4
:1032F000022806D110684069084314686061002004
:1033000004E0506A50F480205062012010BC7047E5
:103310002DE9F84F050000242868466928684768A9
:103320002868D0F808802868D0F80C902868D0F871
:1033300010A02868D0F818B0F00755D55FEAC8701B
:1033400018D50120296888605FEA887003D52800B5
:1033500001F002FB0EE05FEA487002D554F400640D
:1033600008E05FEA087002D554F4805402E02800B7
:1033700001F0F3FA5FEAC85019D54FF4807029685C
:1033800088605FEA885003D5280001F0E7FA0EE074
:103390005FEA485002D554F4005408E05FEA085050
:1033A00002D554F4804402E0280001F0D8FA5FEA24
:1033B000C83019D55FF48030296888605FEA8830AA
:1033C00003D5280001F0CCFA0EE05FEA483002D5C0
:1033D00054F4004408E05FEA083002D554F4803425
:1033E00002E0280001F0BDFA300707D55FEAC960A6
:1033F00004D554F4007410202968C860700708D5FB
:103400005FEA097005D508202968C860280001F026
:10341000A9FAB00707D52868C06810F0030F02D0DA
:103420002800FEF734FC700607D55FEACA6004D5B1
:1034300054F48064102029680861B00608D55FEA5A
:103440000A7005D5082029680861280001F08BFA68
:10345000F00607D52868006910F0030F02D0280095
:1034600001F082FAB00307D5F80605D510202968C7
:103470004860280001F079FAF00307D5380705D530
:10348000082029684860280001F070FA300447D508
:10349000780742D5F00506D51BF00100C0B2002820
:1034A00001D054F00104B00504D55FEA8B7001D55A
:1034B00054F00204700504D55FEA4B7001D554F056
:1034C0000404300529D51BF0700F26D01BF07000C6
:1034D00010280AD020280BD030280CD040280DD03E
:1034E00050280ED060280FD011E054F008040EE0F0
:1034F00054F010040BE054F0200408E054F04004B1
:1035000005E054F0800402E054F48074FFE728687A
:10351000806930F07000296888610420296848605B
:10352000002C05D0686A20436862280001F01FFA69
:10353000BDE8F18F30B40278417851EA02218378F6
:10354000C27852EA03220479437953EA04230C0037
:1035500024B200EE104AB8EEC00ADFED150A20EEE4
:10356000200A154C84ED000A140024B200EE104A23
:10357000B8EEC00AF2EE040A20EE200A0F4C84EDE9
:10358000000A1C0024B200EE104AB8EEC00ADFEDBB
:10359000090A20EE200A0A4C84ED000A90F9064040
:1035A000084D2C7090F90740074D2C7030BC7047C7
:1035B000CDCCCC3D0AD7233CAC030020B003002087
:1035C000B4030020D3030020D40300202DE9F843E6
:1035D00004000D001600304F200080B278600020FB
:1035E000F8600420B8603000C0B23861DFF8AC8009
:1035F0004046FFF793FD0028F8D0DFF8A4904B4633
:103600002A0039004046FFF7EDFCD9F8001040468B
:10361000FFF7A0FD0128F8D0BDE8F18310B41378BE
:103620005C1C14700C002416DBB2C45413785C1CB0
:1036300014700C002414DBB2C45413785C1C147096
:103640000C002412DBB2C45413785C1C1470DBB27F
:10365000C15410BC704710B52DED028B82B0040030
:10366000B0EE408A00208DF800006A46BDEEC80A20
:1036700010EE101A01A8FFF7D1FF9DF8002001A954
:103680002000C0B250F4407080B2FFF79FFF02B03C
:10369000BDEC028B10BD000058030020E4020020A6
:1036A000B8030020C0F3C75181B1FF2906D0C11073
:1036B000400721F0E04101F16051704741020CBF29
:1036C00040F4E0016FF000410020704700F000413D
:1036D00000020AD0B0FA80FC00FA0CF001F160514F
:1036E000A1EB0C5101EBD0214005704730B540F201
:1036F000FF7C1CEA11541DBF1CEA13556445654547
:103700003FE0641981EA030C6FF35F530CF0004C47
:1037100043F48013C90241F0004141EA505EC50202
:103720001100A5FB020200284FF00000EEFB012073
:103730004FF00001E3FB052118BF42F001024018E1
:1037400000214941E3FB0E01A4F580640D0302D280
:1037500092184041494154F1010470DD450872F16D
:10376000004250F1000051EB0451A1F5801102D448
:1037700041EA0C0130BD40F2FF7E4CEA0E510020C0
:1037800030BD0CEA1355644518BF654581EA030C4A
:103790000CF0004C41D050EA410E1CBF52EA430EDF
:1037A00002E06146002030BD24422C441BD15FEA78
:1037B000050EF6D0090302BF01460020AEF1140E3B
:1037C000B1FA81F5AEEB050401FA05FE0C35C5F141
:1037D000200100FA05F5C8404EEA000E6FF35F5372
:1037E00043F480139CE733F00043B3FA83F504BF3E
:1037F000B2FA82FE75440B3D641BB5F1200E2FBF5B
:1038000002FA0EF3AB40C5F1200E22FA0EFE38BFCD
:1038100043EA0E03AA40641C7CE750EA410E14BF41
:1038200052EA430E6FF000014FF4001515EB430F01
:103830008EBF194615EB410F9DE7B4D830BDD4F1CA
:103840000104B4F120050FDAC4F12005520828BFA5
:1038500042F0010210FA05FE01FA05F57244E2BFDA
:10386000E0402843E1400FE0352C9ADCC5F120040C
:1038700052EA400220FA05F218BF42F0010231FA82
:1038800005F0A1400A43002172F1004250F100000E
:1038900051EB0C0130BD000001F000428B1AA3F186
:1038A0006051B1F5801F0ADBB1F17F6F1FD242EA90
:1038B000C102C10071F1004142EB507070470B151D
:1038C000C3F10903212B10D2890241EA90518002F1
:1038D0000128494141F0004121FA03F0C3F12003DE
:1038E000994071F1004150417047100070476FF0EE
:1038F000000013EB103F5CBF000E42EAC05070475F
:10390000DFED620A60EE200A10EE903A23F00041EB
:1039100001EE101ADFED5E1AB4EE611AF1EE10FA44
:1039200025D54FF07C5103F000430B4301EE103AD4
:1039300070EE810AFDEEE00A10EE901A00296AD0BE
:10394000FAEEC90A9FED531A00EE810ADFED521A12
:1039500000EEA10A9FED512A00EE820ADFED502A07
:1039600000EEA20A9FED4F1A00EE810A53E010EE1E
:10397000101A4A001216521C09D149000816401CA0
:1039800002D1090240F081809FED470A704749004B
:1039900004D1002879D0B7EE000A70474FF07C516F
:1039A00003F000430B4301EE103A70EE810A10EE73
:1039B000902A51000FD0090EC1F196011829A8BF15
:1039C00002F0004205DA0029C4BF22FA01F303FA2B
:1039D00001F200EE902A10EE901A490017D09FEDE8
:1039E000331A20EE811ADFED2B1A01EE210A9FED2A
:1039F0002A2A01EE020ADFED292A01EE220A9FEDB2
:103A0000283A01EE030ADFED271A01EE210AFDEE46
:103A1000E00A10EE901A10EE102A22F0004200EE9A
:103A2000902A9FED231A01F00301F4EE410A0818D1
:103A3000F1EE10FA00F0010103D511B3B7EE000A60
:103A40001FE060EE000A71B19FED1A0A9FED1A1A8D
:103A500000EE801ADFED191A41EE201AB7EE000AC7
:103A600001EEA00A0DE09FED162ADFED161A40EEDA
:103A7000821ADFED152A20EE201A41EEA02A01EE6F
:103A8000220A800748BFB1EE400A704783F9223FFF
:103A90000000004F0000C9C600A0FDC00020A2BA6F
:103AA000000034B30030C2AEFFFFFF7F000080385B
:103AB000000080399349B2BA36A02A3DDFFFFFBE2D
:103AC0006E8C4CB94283083CA1AA2ABE012017E79C
:103AD00050B1B0FA80F18840C91CC1F58461090574
:103AE00001EBD021400570470146704738B504000E
:103AF0000025002C01D1012029E0A06ADFF8F01593
:103B00008842206C002807D12000FDF74CF90020E6
:103B10006064002084F83C00206CC00610D4206C47
:103B200030F4885050F002002064200000F033FA96
:103B3000002060640120216C60F30101216401E038
:103B400001200500002084F83C002800C0B232BDEE
:103B500081B002000020009092F83C00012801D1C1
:103B600002208BE0012082F83C0010688068C007CA
:103B700016D41068806850F0010013689860DFF870
:103B800074050068DFF87035B0FBF3F3032043439E
:103B900000930098002803D00098401E0090F8E79A
:103BA00010688068C00760D5136CDFF850050340CB
:103BB00053F48073136410684068400504D50120F5
:103BC000136C60F30D331364106CC00404D5506C97
:103BD00030F00600506401E000205064002082F8BC
:103BE0003C00DFF81C0501007FF02200136818601C
:103BF000486810F01F0F27D11068DFF80835984289
:103C000016D01068DFF80035984205D1DFF8FC04C3
:103C1000006810F01F0F0BD01068DFF8F4349842E2
:103C20002BD1DFF8E804006810F01F00102824D220
:103C30001068806810F0405F1FD11068806850F0F5
:103C400080401368986018E01068DFF8B834984234
:103C500013D11068806810F0405F0ED11068806842
:103C600050F080401368986007E0106C50F010002E
:103C70001064506C50F001005064002001B0704797
:103C8000F8B505000E0017000020009095F83C00E4
:103C9000012801D10220B6E0012085F83C00286807
:103CA0008068C00716D42868806850F00100296831
:103CB0008860DFF840040068DFF83C14B0FBF1F1E5
:103CC0000320414300910098002803D00098401E33
:103CD0000090F8E728688068C00505D528688068E6
:103CE00030F480702968886028688068C00740F1D7
:103CF0008180296CDFF80404014051F4807129644B
:103D000028684068400504D50120296C60F30D3116
:103D10002964286CC00404D5686C30F0060068641F
:103D200001E000206864002085F83C00DFF8D00343
:103D300004000FF2E530A96BC8630FF25940A96B7C
:103D400008640FF26140A96BC8647FF02200296803
:103D500008602868406850F08060296848602868DA
:103D6000806850F48070296888603B0032002868C1
:103D700010F14C01A86BFDF7F6F9606810F01F0F09
:103D800027D12868DFF87C13884216D02868DFF82E
:103D90007813884205D1DFF87403006810F01F0F14
:103DA0000BD02868DFF8681388422BD1DFF85C035A
:103DB000006810F01F00102824D22868806810F0D6
:103DC000405F1FD12868806850F080402968886073
:103DD00018E02868DFF82C13884213D1286880681F
:103DE00010F0405F0ED12868806850F0804029684C
:103DF000886007E0286C50F010002864686C50F070
:103E0000010068640020F2BD38B402000020009078
:103E100092F83C00012801D10220BAE0012082F88A
:103E20003C0008680A2818D31068C368072408688B
:103E30000A38032510FB05F08440A3431068C360D3
:103E40001068C3688C6808680A38032510FB05F001
:103E5000844023431068C36013E01068036907249B
:103E60000D6803204543AC40A3431068036110680C
:103E700003698C680D6803204543AC4023431068F8
:103E800003614868072818D21068436B1F244868EC
:103E9000401E052510FB05F08440A34310684363D2
:103EA0001068436B0C884868401E052510FB05F020
:103EB000844023431068436333E048680D2818D2D8
:103EC0001068036B1F244868C01F052510FB05F010
:103ED0008440A343106803631068036B0C88486830
:103EE000C01F052510FB05F08440234310680363C1
:103EF00017E01068C36A1F2448680D38052510FBB9
:103F000005F08440A3431068C3621068C36A0C883C
:103F100048680D38052510FB05F0844023431068E0
:103F2000C362774B7748146884420AD10C68122C1C
:103F300007D15C6834F400045C605C6854F480046D
:103F40005C601468844220D172480C68844202D0BC
:103F50000C68112C19D15C6834F480045C605C68D6
:103F600054F400045C600C6884420ED1614800681F
:103F7000614CB0FBF4F40A204443009400980028FC
:103F800003D00098401E0090F8E7002082F83C0023
:103F9000002032BC70475A4A516831F440315160B8
:103FA000536841680B4353600168496831F480717C
:103FB0000368596001684968036951EA032103688D
:103FC00059600168496831F04071036859600168BF
:103FD0004B6881680B4301684B600168896831F464
:103FE00000610368996001688B68C1680B430168D0
:103FF0008B60816A3E4B994218D00168896831F024
:1040000070610368996001688B68816A0B4301687D
:104010008B600168896831F04051036899600168DC
:104020008B68C16A0B4301688B600BE0016889688B
:1040300031F07061036899600168896831F040511E
:10404000036899600168896831F00201036899602A
:1040500001688968037E51EA43010368996090F81A
:104060002010002914D00168496851F400610368E8
:1040700059600168496831F460410368596001681A
:104080004968436A5B1E51EA43310368596005E0A1
:104090000168496831F40061036859600168C96AC0
:1040A00031F470010368D9620168C96AC3695B1E93
:1040B00051EA03510368D9620168896831F40071DB
:1040C000036899600168896890F8303051EA4321AB
:1040D000036899600168896831F4806103689960B8
:1040E00001688968436951EA8321036899607047D0
:1040F0000100000F5400002040420F00FEF9FFFFB6
:104100000023014000200140002101400423014020
:10411000002201401200001038B50400A56B286C85
:1041200010F0500F29D1286C50F4007028642868D2
:10413000806810F0405F1CD1287E002819D12868C3
:10414000C06A10F4700F03D028688068400510D44E
:104150002868406830F0200029684860286C30F4F6
:1041600080702864286CC00403D4286C50F00100CF
:104170002864280000F0FCFB0AE0286CC00603D588
:10418000280000F0F6FB03E02000A96BC96C88470B
:1041900031BD000038B50400A56B280000F0EAFB33
:1041A00031BD000038B50400A56B40202864686C60
:1041B00050F004006864280000F0DBFB31BD000013
:1041C00010B50400002C01D101202FE094F83D002F
:1041D000002805D1002084F83C002000FCF773FE85
:1041E000022084F83D00211D206800F029FA0120FA
:1041F00084F84600012084F83E00012084F83F0046
:10420000012084F84000012084F84100012084F856
:104210004200012084F84300012084F8440001207A
:1042200084F84500012084F83D00002010BD010005
:1042300091F83D00012801D001203EE0022081F8E4
:104240003D000868DFF81031984221D00868B0F1CD
:10425000804F1DD00868DFF80431984218D00868F4
:10426000DFF8FC30984213D00868DFF8F830984245
:104270000ED00868DFF8F030984209D00868DFF8FF
:10428000EC30984204D00868DFF8E43098420DD151
:104290000868806810F007000200062A0CD0086841
:1042A000006850F001000B68186005E008680068BD
:1042B00050F001000B68186000207047010091F871
:1042C0003D00012801D0012044E0022081F83D009A
:1042D0000868C06850F001000B68D8600868DFF813
:1042E0007830984221D00868B0F1804F1DD008681E
:1042F000DFF86830984218D00868DFF864309842D8
:1043000013D00868DFF85C3098420ED00868DFF8F8
:104310005830984209D00868DFF85030984204D0ED
:104320000868DFF84C3098420DD10868806810F0BA
:1043300007000200062A0CD00868006850F001004F
:104340000B68186005E00868006850F001000B6811
:104350001860002070470000000001400004004089
:1043600000080040000C00400004014000400140F3
:104370000018004010B504002068006980071AD5B5
:104380002068C068800716D57FF0020021680861A8
:10439000012020772068806910F0030F03D02000EF
:1043A00000F0E9FA05E0200000F0E6FA200000F055
:1043B000E4FA002020772068006940071AD52068B9
:1043C000C068400716D57FF004002168086102200C
:1043D00020772068806910F4407F03D0200000F02F
:1043E000CAFA05E0200000F0C7FA200000F0C5FA84
:1043F000002020772068006900071AD52068C0686F
:10440000000716D57FF00800216808610420207796
:104410002068C06910F0030F03D0200000F0ABFA51
:1044200005E0200000F0A8FA200000F0A6FA002025
:10443000207720680069C0061AD52068C068C006C9
:1044400016D57FF0100021680861082020772068C9
:10445000C06910F4407F03D0200000F08CFA05E022
:10446000200000F089FA200000F087FA0020207771
:1044700020680069C0070AD52068C068C00706D553
:104480007FF00100216808612000FDF711FC206821
:10449000006900060AD52068C068000606D57FF0CE
:1044A000800021680861200000F068FA2068006937
:1044B00040060AD52068C068400606D57FF0400057
:1044C00021680861200000F05AFA2068006980061F
:1044D0000AD52068C068800606D57FF020002168D4
:1044E0000861200000F04CFA10BDF8B504000D0082
:1044F000002694F83C00012801D102206EE0012042
:1045000084F83C00022084F83D002068876837F07A
:10451000770737F47F4720688760286800284ED0E7
:1045200010284CD020284AD0302848D040283CD0F1
:10453000502826D060282ED0702807D0B0F5805F94
:1045400003D0B0F5005F0FD03EE03FE0EB686A6853
:10455000A968206800F079F92068806850F0770039
:1045600007002068876031E0EB686A68A968206806
:1045700000F06BF92068806850F480402168886002
:1045800024E0EA686968206800F032F95021206868
:1045900000F053F91AE0EA686968206800F03AF917
:1045A0006021206800F049F910E0EA686968206835
:1045B00000F01EF94021206800F03FF906E029686C
:1045C000206800F03AF901E001200600012084F89B
:1045D0003D00002084F83C003000C0B2F2BD38B588
:1045E00004000D0094F83C00012801D1022026E0CF
:1045F000012084F83C00022084F83D0029002000BE
:1046000000F081F8002807D0012084F83D00002048
:1046100084F83C00012012E02068C06830F04000BF
:104620002168C8602068C06830F480402168C86094
:10463000012084F83D00002084F83C00002032BDB9
:1046400010B40468DFF87C31984212D0B0F1804F8A
:104650000FD0DFF8742190420BD0DFF87021904228
:1046600007D0DFF86C21904203D0DFF86821904238
:1046700003D134F070044A68144398422AD0B0F150
:10468000804F27D0DFF84021904223D0DFF83C2133
:1046900090421FD0DFF8382190421BD0DFF8342140
:1046A000904217D0DFF83021904213D0DFF82C2150
:1046B00090420FD0DFF8282190420BD0DFF8242160
:1046C000904207D0DFF82021904203D0DFF81C2170
:1046D000904203D134F44074CA68144334F0800427
:1046E0004A69144304608A68C2620A688262984216
:1046F00002D0384A904201D10A6902630122426124
:1047000010BC704700002DE9F84306000F005FF071
:1047100000083068D0F8089039F07009786850EADD
:1047200009095FEAD9095FEAC909386850EA090945
:104730003068C0F80890786800283BD0102839D03D
:10474000202837D0302835D040280CD0502825D00C
:10475000602829D070282ED13B69BA68F968306882
:1047600000F073F829E03868052801D1012026E01F
:104770003068006A05003068006A4008400031680F
:1047800008623068806930F0F000396950EA011041
:10479000040030688461306805620EE03A69B968E7
:1047A000306800F025F808E03A69B968306800F030
:1047B00031F802E001E0012080464046C0B2BDE889
:1047C000F2830000000001400004004000080040A7
:1047D000000C004000040140004001400044014042
:1047E0000048014000180040001C0040002000402C
:1047F00010B4046A036A5B085B000362836933F0E8
:10480000F00353EA021334F00A040C438361046298
:1048100010BC704710B4036A33F01003036283695D
:10482000046A33F4704353EA023334F0A00454EAC8
:1048300001148361046210BC7047826832F0700218
:104840000A4352F007028260704710B4846834F45F
:104850007F440C43144354EA0324846010BC704723
:1048600080B50B48016851F400710160016851F492
:1048700080610160016851F4807101600320FDF7DF
:104880008DFE0020FEF768F9FCF770FA002002BDEB
:10489000003C024000214162002181620021C1628E
:1048A00000210163002141637047000030B4020021
:1048B00092F83C00012801D102203CE0012082F85E
:1048C0003C00022082F83D0010684368106884684C
:1048D00033F0700308680343106843601068174D95
:1048E000A8421BD01068B0F1804F17D01068144D4B
:1048F000A84213D01068134DA8420FD01068124D73
:10490000A8420BD01068114DA84207D01068104D76
:10491000A84203D010680F4DA84205D134F080049E
:104920004868044310688460012082F83D0000203C
:1049300082F83C00002030BC7047000000000140BD
:104940000004004000080040000C0040000401404A
:1049500000400140001800407047704770477047A2
:10496000704770477047704770477047704770478F
:10497000704770477047704770477047704770477F
:1049800070470000FEE7FEE7FEE7FEE7FEE7704740
:104990007047704780B500F033F801BD80B511480D
:1049A000FCF789FC01BD80B50F48FCF784FC01BD14
:1049B00080B50E48FEF7ACFC01BD80B50C48FFF792
:1049C000D9FC01BD80B50B48FBF7B2FC01BD80B539
:1049D0000948FFF7CFFC01BD80B50848FCF76BFC28
:1049E00001BD000020010020C0000020E4020020E2
:1049F000C8010020A002002010020020600000205A
:104A000003480168034A127889180160704700BFA3
:104A1000BC0300205F00002030B4002512E050F8F5
:104A2000042BD30744BF4A44521E091F042942F8ED
:104A3000045BFAD213468C0744BF15809B1CC90740
:104A400048BF1D7050F8041B0029E8D130BC7047E6
:104A500010B5074979441831064C7C44163404E0FB
:104A60000A68081D114488470146A142F8D110BDCB
:104A70002C000000480000004EF68851CEF20001E4
:104A8000086840F470000860BFF34F8FBFF36F8F6A
:104A90004FF00170E1EE100A704700007DFFFFFF4C
:104AA000780300006000002000000000FBE0FFFF32
:104AB000F80100009A0000000000002000F00DF84E
:104AC000002801D0FFF7C4FFAFF300800020AFF350
:104AD0000080FDF739FA00F002F80120704700F07D
:104AE00001B800000746384600F002F8FBE7000076
:104AF00080B5AFF30080024A11001820ABBEFBE77F
:104B0000260002000448016851F4700101605FF062
:104B1000006002490860704788ED00E008ED00E0A1
:104B20000548014603B4684680F30988AFF3008066
:104B3000FFF7A2FFFFF7C2FFA5EDF5FE00000000A2
:104B4000000000000102030406070809014880472D
:104B500001480047054B0008214B000800061016CD
:104B6000000610160000000001020304FFF7FEBF5C
:104B7000FFF7FEBFFFF7FEBFFFF7FEBFFFF7FEBF69
:104B8000FFF7FEBFFFF7FEBFFFF7FEBFFFF7FEBF59
:104B9000FFF7FEBFFFF7FEBFFFF7FEBFFFF7FEBF49
:104BA000FFF7FEBFFFF7FEBFFFF7FEBFFFF7FEBF39
:104BB000FFF7FEBFFFF7FEBFFFF7FEBFFFF7FEBF29
:104BC000FFF7FEBFFFF7FEBFFFF7FEBFFFF7FEBF19
:104BD000FFF7FEBFFFF7FEBFFFF7FEBFFFF7FEBF09
:104BE000FFF7FEBFFFF7FEBFFFF7FEBFFFF7FEBFF9
:104BF000FFF7FEBFFFF7FEBFFFF7FEBFFFF7FEBFE9
:104C0000FFF7FEBFFFF7FEBFFFF7FEBFFFF7FEBFD8
:104C1000FFF7FEBFFFF7FEBFFFF7FEBFFFF7FEBFC8
:104C2000FFF7FEBFFFF7FEBFFFF7FEBFFFF7FEBFB8
:104C3000FFF7FEBFFFF7FEBFFFF7FEBFFFF7FEBFA8
:104C4000FFF7FEBFFFF7FEBFFFF7FEBFFFF7FEBF98
:104C5000FFF7FEBFFFF7FEBFFFF7FEBFFFF7FEBF88
:104C6000FFF7FEBFFFF7FEBFFFF7FEBFFFF7FEBF78
:104C7000FFF7FEBFFFF7FEBFFFF7FEBFFFF7FEBF68
:104C8000FFF7FEBFFFF7FEBFFFF7FEBFFFF7FEBF58
:104C9000FFF7FEBFFFF7FEBFFFF7FEBFFFF7FEBF48
:104CA000FFF7FEBFFFF7FEBF030000A040FD000CB2
:104CB0003F0000803E000048C200004842FD002046
:104CC000200400002008000020B840023D0000A0A1
:104CD000C00000A0400C000020100000206F1283D4
:104CE0003AEA0002964310FC000A24F400FFFFE8B1
:054CF00003C8000101F2
:0400000508004B2183
:00000001FF
